{
	"data": {
		"bytecode": {
			"linkReferences": {},
			"object": "60e060405234801561000f575f5ffd5b506040516134ee3803806134ee8339818101604052810190610031919061027c565b335f73ffffffffffffffffffffffffffffffffffffffff168173ffffffffffffffffffffffffffffffffffffffff16036100a2575f6040517f1e4fbdf700000000000000000000000000000000000000000000000000000000815260040161009991906102db565b60405180910390fd5b6100b18161015d60201b60201c565b50600180819055508273ffffffffffffffffffffffffffffffffffffffff1660808173ffffffffffffffffffffffffffffffffffffffff16815250508173ffffffffffffffffffffffffffffffffffffffff1660a08173ffffffffffffffffffffffffffffffffffffffff16815250508073ffffffffffffffffffffffffffffffffffffffff1660c08173ffffffffffffffffffffffffffffffffffffffff16815250505050506102f4565b5f5f5f9054906101000a900473ffffffffffffffffffffffffffffffffffffffff169050815f5f6101000a81548173ffffffffffffffffffffffffffffffffffffffff021916908373ffffffffffffffffffffffffffffffffffffffff1602179055508173ffffffffffffffffffffffffffffffffffffffff168173ffffffffffffffffffffffffffffffffffffffff167f8be0079c531659141344cd1fd0a4f28419497f9722a3daafe3b4186f6b6457e060405160405180910390a35050565b5f5ffd5b5f73ffffffffffffffffffffffffffffffffffffffff82169050919050565b5f61024b82610222565b9050919050565b61025b81610241565b8114610265575f5ffd5b50565b5f8151905061027681610252565b92915050565b5f5f5f606084860312156102935761029261021e565b5b5f6102a086828701610268565b93505060206102b186828701610268565b92505060406102c286828701610268565b9150509250925092565b6102d581610241565b82525050565b5f6020820190506102ee5f8301846102cc565b92915050565b60805160a05160c0516131986103565f395f8181610b9101528181610c5501528181610e92015281816116ab01528181611720015261188c01525f8181610ad5015261142e01525f818161039401528181611a7c0152611be601526131985ff3fe608060405234801561000f575f5ffd5b50600436106100f3575f3560e01c80638da5cb5b11610095578063e7c5a6e811610064578063e7c5a6e81461025e578063e9cbd8221461027a578063ebb08d8714610298578063f2fde38b146102b4576100f3565b80638da5cb5b146101d6578063ac1f5cf9146101f4578063c3920ddc14610212578063d80989ed1461022e576100f3565b80630ec9a49c116100d15780630ec9a49c1461014f5780631d3c9b9b146101805780635b79175c1461019c578063715018a6146101cc576100f3565b806301681a62146100f75780630758d92414610113578063077e21f514610131575b5f5ffd5b610111600480360381019061010c9190611d9e565b6102d0565b005b61011b610392565b6040516101289190611e24565b60405180910390f35b6101396103b6565b6040516101469190611e4c565b60405180910390f35b61016960048036038101906101649190611ec6565b6103db565b604051610177929190611fe3565b60405180910390f35b61019a6004803603810190610195919061206d565b610621565b005b6101b660048036038101906101b19190611d9e565b610a75565b6040516101c39190612153565b60405180910390f35b6101d4610a99565b005b6101de610aac565b6040516101eb9190611e4c565b60405180910390f35b6101fc610ad3565b604051610209919061218c565b60405180910390f35b61022c600480360381019061022791906121cf565b610af7565b005b61024860048036038101906102439190612398565b610d4c565b6040516102559190611e4c565b60405180910390f35b61027860048036038101906102739190611d9e565b610d94565b005b610282610e90565b60405161028f91906123ff565b60405180910390f35b6102b260048036038101906102ad9190612497565b610eb4565b005b6102ce60048036038101906102c99190611d9e565b611057565b005b6102d86110db565b5f8173ffffffffffffffffffffffffffffffffffffffff166370a08231306040518263ffffffff1660e01b81526004016103129190611e4c565b602060405180830381865afa15801561032d573d5f5f3e3d5ffd5b505050506040513d601f19601f82011682018060405250810190610351919061251c565b90505f81111561038e5761038d610366610aac565b828473ffffffffffffffffffffffffffffffffffffffff166111629092919063ffffffff16565b5b5050565b7f000000000000000000000000000000000000000000000000000000000000000081565b60025f9054906101000a900473ffffffffffffffffffffffffffffffffffffffff1681565b6060805f6103ea8686866111e1565b90508484905067ffffffffffffffff81111561040957610408612274565b5b6040519080825280602002602001820160405280156104375781602001602082028036833780820191505090505b5092508484905067ffffffffffffffff81111561045757610456612274565b5b6040519080825280602002602001820160405280156104855781602001602082028036833780820191505090505b5091505f5f90505b85859050811015610617575f8686838181106104ac576104ab612547565b5b9050604002018036038101906104c291906125c5565b90505f6104d289835f015161124f565b90505f6127108360200151866104e8919061261d565b6104f2919061268b565b9050808211156105d2575f818361050991906126bb565b90505f610518855f0151611389565b905080855f015173ffffffffffffffffffffffffffffffffffffffff1663313ce5676040518163ffffffff1660e01b8152600401602060405180830381865afa158015610567573d5f5f3e3d5ffd5b505050506040513d601f19601f8201168201806040525081019061058b9190612724565b600a610597919061287e565b836105a2919061261d565b6105ac919061268b565b8987815181106105bf576105be612547565b5b6020026020010181815250505050610607565b808210156106065781816105e691906126bb565b8685815181106105f9576105f8612547565b5b6020026020010181815250505b5b505050808060010191505061048d565b5050935093915050565b6106296115b2565b60025f9054906101000a900473ffffffffffffffffffffffffffffffffffffffff1673ffffffffffffffffffffffffffffffffffffffff163373ffffffffffffffffffffffffffffffffffffffff1614806106b65750610687610aac565b73ffffffffffffffffffffffffffffffffffffffff163373ffffffffffffffffffffffffffffffffffffffff16145b806106ec57508673ffffffffffffffffffffffffffffffffffffffff163373ffffffffffffffffffffffffffffffffffffffff16145b61072b576040517f08c379a000000000000000000000000000000000000000000000000000000000815260040161072290612922565b60405180910390fd5b838390508686905014801561074557508181905086869050145b610784576040517f08c379a000000000000000000000000000000000000000000000000000000000815260040161077b9061298a565b60405180910390fd5b5f6107908888886111e1565b90505f81116107d4576040517f08c379a00000000000000000000000000000000000000000000000000000000081526004016107cb90612a18565b60405180910390fd5b5f8787905067ffffffffffffffff8111156107f2576107f1612274565b5b6040519080825280602002602001820160405280156108205781602001602082028036833780820191505090505b5090505f8888905067ffffffffffffffff81111561084157610840612274565b5b60405190808252806020026020018201604052801561086f5781602001602082028036833780820191505090505b5090505f5f90505b89899050811015610a01575f8a8a8381811061089657610895612547565b5b9050604002018036038101906108ac91906125c5565b90505f6108bc8d835f015161124f565b90505f6127108360200151886108d2919061261d565b6108dc919061268b565b9050808211156109bc575f81836108f391906126bb565b90505f610902855f0151611389565b905080855f015173ffffffffffffffffffffffffffffffffffffffff1663313ce5676040518163ffffffff1660e01b8152600401602060405180830381865afa158015610951573d5f5f3e3d5ffd5b505050506040513d601f19601f820116820180604052508101906109759190612724565b600a610981919061287e565b8361098c919061261d565b610996919061268b565b8887815181106109a9576109a8612547565b5b60200260200101818152505050506109f1565b808210156109f05781816109d091906126bb565b8585815181106109e3576109e2612547565b5b6020026020010181815250505b5b5050508080600101915050610877565b50610a108a8a8a858b8b611601565b610a1e8a8a8a84898961171d565b8973ffffffffffffffffffffffffffffffffffffffff167f4b7c2781af32cb28916c684579e4c166d4e48e9a8b4c6045de00a632d7d433d760405160405180910390a2505050610a6c611912565b50505050505050565b6004602052805f5260405f205f915054906101000a900467ffffffffffffffff1681565b610aa16110db565b610aaa5f61191b565b565b5f5f5f9054906101000a900473ffffffffffffffffffffffffffffffffffffffff16905090565b7f000000000000000000000000000000000000000000000000000000000000000081565b610aff6115b2565b5f8311610b41576040517f08c379a0000000000000000000000000000000000000000000000000000000008152600401610b3890612a80565b60405180910390fd5b818190508585905014610b89576040517f08c379a0000000000000000000000000000000000000000000000000000000008152600401610b809061298a565b60405180910390fd5b610bd63330857f000000000000000000000000000000000000000000000000000000000000000073ffffffffffffffffffffffffffffffffffffffff166119dc909392919063ffffffff16565b5f5f90505f5f90505b86869050811015610ca9575f878783818110610bfe57610bfd612547565b5b905060400201803603810190610c1491906125c5565b9050806020015183610c269190612a9e565b92505f612710826020015188610c3c919061261d565b610c46919061268b565b90505f811115610c9a57610c997f0000000000000000000000000000000000000000000000000000000000000000835f015183898988818110610c8c57610c8b612547565b5b9050602002013533611a5e565b5b50508080600101915050610bdf565b506127108114610cee576040517f08c379a0000000000000000000000000000000000000000000000000000000008152600401610ce590612b1b565b60405180910390fd5b3373ffffffffffffffffffffffffffffffffffffffff167f1ccf10cf2399a9e48a62b8a7d390feb890bf43cc52a23f5a83c392b8d5e6471685604051610d349190612b48565b60405180910390a250610d45611912565b5050505050565b6003818051602081018201805184825260208301602085012081835280955050505050505f915054906101000a900473ffffffffffffffffffffffffffffffffffffffff1681565b610d9c6110db565b5f73ffffffffffffffffffffffffffffffffffffffff168173ffffffffffffffffffffffffffffffffffffffff1603610e0a576040517f08c379a0000000000000000000000000000000000000000000000000000000008152600401610e0190612bab565b60405180910390fd5b8060025f6101000a81548173ffffffffffffffffffffffffffffffffffffffff021916908373ffffffffffffffffffffffffffffffffffffffff1602179055508073ffffffffffffffffffffffffffffffffffffffff167fc204ac232c537a1868633339726708c068266d6db4b719603647317f83eb078760405160405180910390a250565b7f000000000000000000000000000000000000000000000000000000000000000081565b610ebc6110db565b5f73ffffffffffffffffffffffffffffffffffffffff168273ffffffffffffffffffffffffffffffffffffffff1603610f2a576040517f08c379a0000000000000000000000000000000000000000000000000000000008152600401610f2190612c13565b60405180910390fd5b8160038585604051610f3d929190612c5f565b90815260200160405180910390205f6101000a81548173ffffffffffffffffffffffffffffffffffffffff021916908373ffffffffffffffffffffffffffffffffffffffff1602179055508060045f8473ffffffffffffffffffffffffffffffffffffffff1673ffffffffffffffffffffffffffffffffffffffff1681526020019081526020015f205f6101000a81548167ffffffffffffffff021916908367ffffffffffffffff1602179055508173ffffffffffffffffffffffffffffffffffffffff168484604051611012929190612c5f565b60405180910390207fd9a3f626cfde126b60e5fc543dbd0a1167bdc926499154fd6a5a86ffb3b0646f836040516110499190612153565b60405180910390a350505050565b61105f6110db565b5f73ffffffffffffffffffffffffffffffffffffffff168173ffffffffffffffffffffffffffffffffffffffff16036110cf575f6040517f1e4fbdf70000000000000000000000000000000000000000000000000000000081526004016110c69190611e4c565b60405180910390fd5b6110d88161191b565b50565b6110e3611c91565b73ffffffffffffffffffffffffffffffffffffffff16611101610aac565b73ffffffffffffffffffffffffffffffffffffffff161461116057611124611c91565b6040517f118cdaa70000000000000000000000000000000000000000000000000000000081526004016111579190611e4c565b60405180910390fd5b565b6111dc838473ffffffffffffffffffffffffffffffffffffffff1663a9059cbb8585604051602401611195929190612c77565b604051602081830303815290604052915060e01b6020820180517bffffffffffffffffffffffffffffffffffffffffffffffffffffffff8381831617835250505050611c98565b505050565b5f5f5f90505f5f90505b84849050811015611243576112298686868481811061120d5761120c612547565b5b9050604002015f0160208101906112249190611d9e565b61124f565b826112349190612a9e565b915080806001019150506111eb565b50809150509392505050565b5f5f8273ffffffffffffffffffffffffffffffffffffffff166370a08231856040518263ffffffff1660e01b815260040161128a9190611e4c565b602060405180830381865afa1580156112a5573d5f5f3e3d5ffd5b505050506040513d601f19601f820116820180604052508101906112c9919061251c565b90505f81036112db575f915050611383565b5f6112e584611389565b90505f8473ffffffffffffffffffffffffffffffffffffffff1663313ce5676040518163ffffffff1660e01b8152600401602060405180830381865afa158015611331573d5f5f3e3d5ffd5b505050506040513d601f19601f820116820180604052508101906113559190612724565b60ff16905080600a6113679190612c9e565b8284611373919061261d565b61137d919061268b565b93505050505b92915050565b5f5f60045f8473ffffffffffffffffffffffffffffffffffffffff1673ffffffffffffffffffffffffffffffffffffffff1681526020019081526020015f205f9054906101000a900467ffffffffffffffff1690505f8167ffffffffffffffff160361142a576040517f08c379a000000000000000000000000000000000000000000000000000000000815260040161142190612d58565b60405180910390fd5b5f5f7f000000000000000000000000000000000000000000000000000000000000000073ffffffffffffffffffffffffffffffffffffffff166398f93a96846040518263ffffffff1660e01b81526004016114859190612153565b6040805180830381865afa15801561149f573d5f5f3e3d5ffd5b505050506040513d601f19601f820116820180604052508101906114c39190612dde565b9150915080611507576040517f08c379a00000000000000000000000000000000000000000000000000000000081526004016114fe90612e66565b60405180910390fd5b5f608083901b60801c6fffffffffffffffffffffffffffffffff1690505f607884901b60f81c60ff169050601281101561156b5780601261154891906126bb565b600a6115549190612c9e565b8261155f919061261d565b955050505050506115ad565b60128111156115a45760128161158191906126bb565b600a61158d9190612c9e565b82611598919061268b565b955050505050506115ad565b81955050505050505b919050565b6002600154036115f7576040517f08c379a00000000000000000000000000000000000000000000000000000000081526004016115ee90612ece565b60405180910390fd5b6002600181905550565b5f5f90505b8351811015611714575f84828151811061162357611622612547565b5b60200260200101511115611707575f86868381811061164557611644612547565b5b9050604002015f01602081019061165c9190611d9e565b90506116a5883087858151811061167657611675612547565b5b60200260200101518473ffffffffffffffffffffffffffffffffffffffff166119dc909392919063ffffffff16565b611705817f00000000000000000000000000000000000000000000000000000000000000008785815181106116dd576116dc612547565b5b60200260200101518787878181106116f8576116f7612547565b5b9050602002013530611a5e565b505b8080600101915050611606565b50505050505050565b5f7f000000000000000000000000000000000000000000000000000000000000000073ffffffffffffffffffffffffffffffffffffffff166370a08231306040518263ffffffff1660e01b81526004016117779190611e4c565b602060405180830381865afa158015611792573d5f5f3e3d5ffd5b505050506040513d601f19601f820116820180604052508101906117b6919061251c565b90505f81036117c5575061190a565b5f5f90505f5f90505b855181101561180c578581815181106117ea576117e9612547565b5b6020026020010151826117fd9190612a9e565b915080806001019150506117ce565b505f810361181b57505061190a565b5f5f90505b8551811015611906575f86828151811061183d5761183c612547565b5b602002602001015111156118f9575f828783815181106118605761185f612547565b5b602002602001015185611873919061261d565b61187d919061268b565b90505f8111156118f7576118f67f00000000000000000000000000000000000000000000000000000000000000008a8a858181106118be576118bd612547565b5b9050604002015f0160208101906118d59190611d9e565b838989878181106118e9576118e8612547565b5b905060200201358e611a5e565b5b505b8080600101915050611820565b5050505b505050505050565b60018081905550565b5f5f5f9054906101000a900473ffffffffffffffffffffffffffffffffffffffff169050815f5f6101000a81548173ffffffffffffffffffffffffffffffffffffffff021916908373ffffffffffffffffffffffffffffffffffffffff1602179055508173ffffffffffffffffffffffffffffffffffffffff168173ffffffffffffffffffffffffffffffffffffffff167f8be0079c531659141344cd1fd0a4f28419497f9722a3daafe3b4186f6b6457e060405160405180910390a35050565b611a58848573ffffffffffffffffffffffffffffffffffffffff166323b872dd868686604051602401611a1193929190612eec565b604051602081830303815290604052915060e01b6020820180517bffffffffffffffffffffffffffffffffffffffffffffffffffffffff8381831617835250505050611c98565b50505050565b8473ffffffffffffffffffffffffffffffffffffffff1663095ea7b37f0000000000000000000000000000000000000000000000000000000000000000856040518363ffffffff1660e01b8152600401611ab9929190612c77565b6020604051808303815f875af1158015611ad5573d5f5f3e3d5ffd5b505050506040513d601f19601f82011682018060405250810190611af99190612f21565b505f600267ffffffffffffffff811115611b1657611b15612274565b5b604051908082528060200260200182016040528015611b445781602001602082028036833780820191505090505b50905085815f81518110611b5b57611b5a612547565b5b602002602001019073ffffffffffffffffffffffffffffffffffffffff16908173ffffffffffffffffffffffffffffffffffffffff16815250508481600181518110611baa57611ba9612547565b5b602002602001019073ffffffffffffffffffffffffffffffffffffffff16908173ffffffffffffffffffffffffffffffffffffffff16815250507f000000000000000000000000000000000000000000000000000000000000000073ffffffffffffffffffffffffffffffffffffffff166338ed173985858486426040518663ffffffff1660e01b8152600401611c45959493929190613003565b5f604051808303815f875af1158015611c60573d5f5f3e3d5ffd5b505050506040513d5f823e3d601f19601f82011682018060405250810190611c88919061311b565b50505050505050565b5f33905090565b5f5f60205f8451602086015f885af180611cb7576040513d5f823e3d81fd5b3d92505f519150505f8214611cd0576001811415611ceb565b5f8473ffffffffffffffffffffffffffffffffffffffff163b145b15611d2d57836040517f5274afe7000000000000000000000000000000000000000000000000000000008152600401611d249190611e4c565b60405180910390fd5b50505050565b5f604051905090565b5f5ffd5b5f5ffd5b5f73ffffffffffffffffffffffffffffffffffffffff82169050919050565b5f611d6d82611d44565b9050919050565b611d7d81611d63565b8114611d87575f5ffd5b50565b5f81359050611d9881611d74565b92915050565b5f60208284031215611db357611db2611d3c565b5b5f611dc084828501611d8a565b91505092915050565b5f819050919050565b5f611dec611de7611de284611d44565b611dc9565b611d44565b9050919050565b5f611dfd82611dd2565b9050919050565b5f611e0e82611df3565b9050919050565b611e1e81611e04565b82525050565b5f602082019050611e375f830184611e15565b92915050565b611e4681611d63565b82525050565b5f602082019050611e5f5f830184611e3d565b92915050565b5f5ffd5b5f5ffd5b5f5ffd5b5f5f83601f840112611e8657611e85611e65565b5b8235905067ffffffffffffffff811115611ea357611ea2611e69565b5b602083019150836040820283011115611ebf57611ebe611e6d565b5b9250929050565b5f5f5f60408486031215611edd57611edc611d3c565b5b5f611eea86828701611d8a565b935050602084013567ffffffffffffffff811115611f0b57611f0a611d40565b5b611f1786828701611e71565b92509250509250925092565b5f81519050919050565b5f82825260208201905092915050565b5f819050602082019050919050565b5f819050919050565b611f5e81611f4c565b82525050565b5f611f6f8383611f55565b60208301905092915050565b5f602082019050919050565b5f611f9182611f23565b611f9b8185611f2d565b9350611fa683611f3d565b805f5b83811015611fd6578151611fbd8882611f64565b9750611fc883611f7b565b925050600181019050611fa9565b5085935050505092915050565b5f6040820190508181035f830152611ffb8185611f87565b9050818103602083015261200f8184611f87565b90509392505050565b5f5f83601f84011261202d5761202c611e65565b5b8235905067ffffffffffffffff81111561204a57612049611e69565b5b60208301915083602082028301111561206657612065611e6d565b5b9250929050565b5f5f5f5f5f5f5f6080888a03121561208857612087611d3c565b5b5f6120958a828b01611d8a565b975050602088013567ffffffffffffffff8111156120b6576120b5611d40565b5b6120c28a828b01611e71565b9650965050604088013567ffffffffffffffff8111156120e5576120e4611d40565b5b6120f18a828b01612018565b9450945050606088013567ffffffffffffffff81111561211457612113611d40565b5b6121208a828b01612018565b925092505092959891949750929550565b5f67ffffffffffffffff82169050919050565b61214d81612131565b82525050565b5f6020820190506121665f830184612144565b92915050565b5f61217682611df3565b9050919050565b6121868161216c565b82525050565b5f60208201905061219f5f83018461217d565b92915050565b6121ae81611f4c565b81146121b8575f5ffd5b50565b5f813590506121c9816121a5565b92915050565b5f5f5f5f5f606086880312156121e8576121e7611d3c565b5b5f86013567ffffffffffffffff81111561220557612204611d40565b5b61221188828901611e71565b95509550506020612224888289016121bb565b935050604086013567ffffffffffffffff81111561224557612244611d40565b5b61225188828901612018565b92509250509295509295909350565b5f5ffd5b5f601f19601f8301169050919050565b7f4e487b71000000000000000000000000000000000000000000000000000000005f52604160045260245ffd5b6122aa82612264565b810181811067ffffffffffffffff821117156122c9576122c8612274565b5b80604052505050565b5f6122db611d33565b90506122e782826122a1565b919050565b5f67ffffffffffffffff82111561230657612305612274565b5b61230f82612264565b9050602081019050919050565b828183375f83830152505050565b5f61233c612337846122ec565b6122d2565b90508281526020810184848401111561235857612357612260565b5b61236384828561231c565b509392505050565b5f82601f83011261237f5761237e611e65565b5b813561238f84826020860161232a565b91505092915050565b5f602082840312156123ad576123ac611d3c565b5b5f82013567ffffffffffffffff8111156123ca576123c9611d40565b5b6123d68482850161236b565b91505092915050565b5f6123e982611df3565b9050919050565b6123f9816123df565b82525050565b5f6020820190506124125f8301846123f0565b92915050565b5f5f83601f84011261242d5761242c611e65565b5b8235905067ffffffffffffffff81111561244a57612449611e69565b5b60208301915083600182028301111561246657612465611e6d565b5b9250929050565b61247681612131565b8114612480575f5ffd5b50565b5f813590506124918161246d565b92915050565b5f5f5f5f606085870312156124af576124ae611d3c565b5b5f85013567ffffffffffffffff8111156124cc576124cb611d40565b5b6124d887828801612418565b945094505060206124eb87828801611d8a565b92505060406124fc87828801612483565b91505092959194509250565b5f81519050612516816121a5565b92915050565b5f6020828403121561253157612530611d3c565b5b5f61253e84828501612508565b91505092915050565b7f4e487b71000000000000000000000000000000000000000000000000000000005f52603260045260245ffd5b5f5ffd5b5f6040828403121561258d5761258c612574565b5b61259760406122d2565b90505f6125a684828501611d8a565b5f8301525060206125b9848285016121bb565b60208301525092915050565b5f604082840312156125da576125d9611d3c565b5b5f6125e784828501612578565b91505092915050565b7f4e487b71000000000000000000000000000000000000000000000000000000005f52601160045260245ffd5b5f61262782611f4c565b915061263283611f4c565b925082820261264081611f4c565b91508282048414831517612657576126566125f0565b5b5092915050565b7f4e487b71000000000000000000000000000000000000000000000000000000005f52601260045260245ffd5b5f61269582611f4c565b91506126a083611f4c565b9250826126b0576126af61265e565b5b828204905092915050565b5f6126c582611f4c565b91506126d083611f4c565b92508282039050818111156126e8576126e76125f0565b5b92915050565b5f60ff82169050919050565b612703816126ee565b811461270d575f5ffd5b50565b5f8151905061271e816126fa565b92915050565b5f6020828403121561273957612738611d3c565b5b5f61274684828501612710565b91505092915050565b5f8160011c9050919050565b5f5f8291508390505b60018511156127a4578086048111156127805761277f6125f0565b5b600185161561278f5780820291505b808102905061279d8561274f565b9450612764565b94509492505050565b5f826127bc5760019050612877565b816127c9575f9050612877565b81600181146127df57600281146127e957612818565b6001915050612877565b60ff8411156127fb576127fa6125f0565b5b8360020a915084821115612812576128116125f0565b5b50612877565b5060208310610133831016604e8410600b841016171561284d5782820a905083811115612848576128476125f0565b5b612877565b61285a848484600161275b565b92509050818404811115612871576128706125f0565b5b81810290505b9392505050565b5f61288882611f4c565b9150612893836126ee565b92506128c07fffffffffffffffffffffffffffffffffffffffffffffffffffffffffffffffff84846127ad565b905092915050565b5f82825260208201905092915050565b7f4e6f7420617574686f72697a65640000000000000000000000000000000000005f82015250565b5f61290c600e836128c8565b9150612917826128d8565b602082019050919050565b5f6020820190508181035f83015261293981612900565b9050919050565b7f496e707574206172726179206c656e677468206d69736d6174636800000000005f82015250565b5f612974601b836128c8565b915061297f82612940565b602082019050919050565b5f6020820190508181035f8301526129a181612968565b9050919050565b7f43616e6e6f7420726562616c616e6365207a65726f2d76616c756520706f72745f8201527f666f6c696f000000000000000000000000000000000000000000000000000000602082015250565b5f612a026025836128c8565b9150612a0d826129a8565b604082019050919050565b5f6020820190508181035f830152612a2f816129f6565b9050919050565b7f4361706974616c206d757374206265203e2030000000000000000000000000005f82015250565b5f612a6a6013836128c8565b9150612a7582612a36565b602082019050919050565b5f6020820190508181035f830152612a9781612a5e565b9050919050565b5f612aa882611f4c565b9150612ab383611f4c565b9250828201905080821115612acb57612aca6125f0565b5b92915050565b7f50657263656e7461676573206d7573742073756d20746f2031303025000000005f82015250565b5f612b05601c836128c8565b9150612b1082612ad1565b602082019050919050565b5f6020820190508181035f830152612b3281612af9565b9050919050565b612b4281611f4c565b82525050565b5f602082019050612b5b5f830184612b39565b92915050565b7f4175746f6d61746f7220616464726573732063616e6e6f74206265207a65726f5f82015250565b5f612b956020836128c8565b9150612ba082612b61565b602082019050919050565b5f6020820190508181035f830152612bc281612b89565b9050919050565b7f546f6b656e20616464726573732063616e6e6f74206265207a65726f000000005f82015250565b5f612bfd601c836128c8565b9150612c0882612bc9565b602082019050919050565b5f6020820190508181035f830152612c2a81612bf1565b9050919050565b5f81905092915050565b5f612c468385612c31565b9350612c5383858461231c565b82840190509392505050565b5f612c6b828486612c3b565b91508190509392505050565b5f604082019050612c8a5f830185611e3d565b612c976020830184612b39565b9392505050565b5f612ca882611f4c565b9150612cb383611f4c565b9250612ce07fffffffffffffffffffffffffffffffffffffffffffffffffffffffffffffffff84846127ad565b905092915050565b7f50726963652066656564206e6f74207265676973746572656420666f7220746f5f8201527f6b656e0000000000000000000000000000000000000000000000000000000000602082015250565b5f612d426023836128c8565b9150612d4d82612ce8565b604082019050919050565b5f6020820190508181035f830152612d6f81612d36565b9050919050565b5f819050919050565b612d8881612d76565b8114612d92575f5ffd5b50565b5f81519050612da381612d7f565b92915050565b5f8115159050919050565b612dbd81612da9565b8114612dc7575f5ffd5b50565b5f81519050612dd881612db4565b92915050565b5f5f60408385031215612df457612df3611d3c565b5b5f612e0185828601612d95565b9250506020612e1285828601612dca565b9150509250929050565b7f5375707261205356616c756546656564206661696c65640000000000000000005f82015250565b5f612e506017836128c8565b9150612e5b82612e1c565b602082019050919050565b5f6020820190508181035f830152612e7d81612e44565b9050919050565b7f5265656e7472616e637947756172643a207265656e7472616e742063616c6c005f82015250565b5f612eb8601f836128c8565b9150612ec382612e84565b602082019050919050565b5f6020820190508181035f830152612ee581612eac565b9050919050565b5f606082019050612eff5f830186611e3d565b612f0c6020830185611e3d565b612f196040830184612b39565b949350505050565b5f60208284031215612f3657612f35611d3c565b5b5f612f4384828501612dca565b91505092915050565b5f81519050919050565b5f82825260208201905092915050565b5f819050602082019050919050565b612f7e81611d63565b82525050565b5f612f8f8383612f75565b60208301905092915050565b5f602082019050919050565b5f612fb182612f4c565b612fbb8185612f56565b9350612fc683612f66565b805f5b83811015612ff6578151612fdd8882612f84565b9750612fe883612f9b565b925050600181019050612fc9565b5085935050505092915050565b5f60a0820190506130165f830188612b39565b6130236020830187612b39565b81810360408301526130358186612fa7565b90506130446060830185611e3d565b6130516080830184612b39565b9695505050505050565b5f67ffffffffffffffff82111561307557613074612274565b5b602082029050602081019050919050565b5f6130986130938461305b565b6122d2565b905080838252602082019050602084028301858111156130bb576130ba611e6d565b5b835b818110156130e457806130d08882612508565b8452602084019350506020810190506130bd565b5050509392505050565b5f82601f83011261310257613101611e65565b5b8151613112848260208601613086565b91505092915050565b5f602082840312156131305761312f611d3c565b5b5f82015167ffffffffffffffff81111561314d5761314c611d40565b5b613159848285016130ee565b9150509291505056fea2646970667358221220516c659fcdc11898442d9261b38a91297ffa2dd142dae045ff03a9fe85cdfd1264736f6c634300081e0033",
			"opcodes": "PUSH1 0xE0 PUSH1 0x40 MSTORE CALLVALUE DUP1 ISZERO PUSH2 0xF JUMPI PUSH0 PUSH0 REVERT JUMPDEST POP PUSH1 0x40 MLOAD PUSH2 0x34EE CODESIZE SUB DUP1 PUSH2 0x34EE DUP4 CODECOPY DUP2 DUP2 ADD PUSH1 0x40 MSTORE DUP2 ADD SWAP1 PUSH2 0x31 SWAP2 SWAP1 PUSH2 0x27C JUMP JUMPDEST CALLER PUSH0 PUSH20 0xFFFFFFFFFFFFFFFFFFFFFFFFFFFFFFFFFFFFFFFF AND DUP2 PUSH20 0xFFFFFFFFFFFFFFFFFFFFFFFFFFFFFFFFFFFFFFFF AND SUB PUSH2 0xA2 JUMPI PUSH0 PUSH1 0x40 MLOAD PUSH32 0x1E4FBDF700000000000000000000000000000000000000000000000000000000 DUP2 MSTORE PUSH1 0x4 ADD PUSH2 0x99 SWAP2 SWAP1 PUSH2 0x2DB JUMP JUMPDEST PUSH1 0x40 MLOAD DUP1 SWAP2 SUB SWAP1 REVERT JUMPDEST PUSH2 0xB1 DUP2 PUSH2 0x15D PUSH1 0x20 SHL PUSH1 0x20 SHR JUMP JUMPDEST POP PUSH1 0x1 DUP1 DUP2 SWAP1 SSTORE POP DUP3 PUSH20 0xFFFFFFFFFFFFFFFFFFFFFFFFFFFFFFFFFFFFFFFF AND PUSH1 0x80 DUP2 PUSH20 0xFFFFFFFFFFFFFFFFFFFFFFFFFFFFFFFFFFFFFFFF AND DUP2 MSTORE POP POP DUP2 PUSH20 0xFFFFFFFFFFFFFFFFFFFFFFFFFFFFFFFFFFFFFFFF AND PUSH1 0xA0 DUP2 PUSH20 0xFFFFFFFFFFFFFFFFFFFFFFFFFFFFFFFFFFFFFFFF AND DUP2 MSTORE POP POP DUP1 PUSH20 0xFFFFFFFFFFFFFFFFFFFFFFFFFFFFFFFFFFFFFFFF AND PUSH1 0xC0 DUP2 PUSH20 0xFFFFFFFFFFFFFFFFFFFFFFFFFFFFFFFFFFFFFFFF AND DUP2 MSTORE POP POP POP POP POP PUSH2 0x2F4 JUMP JUMPDEST PUSH0 PUSH0 PUSH0 SWAP1 SLOAD SWAP1 PUSH2 0x100 EXP SWAP1 DIV PUSH20 0xFFFFFFFFFFFFFFFFFFFFFFFFFFFFFFFFFFFFFFFF AND SWAP1 POP DUP2 PUSH0 PUSH0 PUSH2 0x100 EXP DUP2 SLOAD DUP2 PUSH20 0xFFFFFFFFFFFFFFFFFFFFFFFFFFFFFFFFFFFFFFFF MUL NOT AND SWAP1 DUP4 PUSH20 0xFFFFFFFFFFFFFFFFFFFFFFFFFFFFFFFFFFFFFFFF AND MUL OR SWAP1 SSTORE POP DUP2 PUSH20 0xFFFFFFFFFFFFFFFFFFFFFFFFFFFFFFFFFFFFFFFF AND DUP2 PUSH20 0xFFFFFFFFFFFFFFFFFFFFFFFFFFFFFFFFFFFFFFFF AND PUSH32 0x8BE0079C531659141344CD1FD0A4F28419497F9722A3DAAFE3B4186F6B6457E0 PUSH1 0x40 MLOAD PUSH1 0x40 MLOAD DUP1 SWAP2 SUB SWAP1 LOG3 POP POP JUMP JUMPDEST PUSH0 PUSH0 REVERT JUMPDEST PUSH0 PUSH20 0xFFFFFFFFFFFFFFFFFFFFFFFFFFFFFFFFFFFFFFFF DUP3 AND SWAP1 POP SWAP2 SWAP1 POP JUMP JUMPDEST PUSH0 PUSH2 0x24B DUP3 PUSH2 0x222 JUMP JUMPDEST SWAP1 POP SWAP2 SWAP1 POP JUMP JUMPDEST PUSH2 0x25B DUP2 PUSH2 0x241 JUMP JUMPDEST DUP2 EQ PUSH2 0x265 JUMPI PUSH0 PUSH0 REVERT JUMPDEST POP JUMP JUMPDEST PUSH0 DUP2 MLOAD SWAP1 POP PUSH2 0x276 DUP2 PUSH2 0x252 JUMP JUMPDEST SWAP3 SWAP2 POP POP JUMP JUMPDEST PUSH0 PUSH0 PUSH0 PUSH1 0x60 DUP5 DUP7 SUB SLT ISZERO PUSH2 0x293 JUMPI PUSH2 0x292 PUSH2 0x21E JUMP JUMPDEST JUMPDEST PUSH0 PUSH2 0x2A0 DUP7 DUP3 DUP8 ADD PUSH2 0x268 JUMP JUMPDEST SWAP4 POP POP PUSH1 0x20 PUSH2 0x2B1 DUP7 DUP3 DUP8 ADD PUSH2 0x268 JUMP JUMPDEST SWAP3 POP POP PUSH1 0x40 PUSH2 0x2C2 DUP7 DUP3 DUP8 ADD PUSH2 0x268 JUMP JUMPDEST SWAP2 POP POP SWAP3 POP SWAP3 POP SWAP3 JUMP JUMPDEST PUSH2 0x2D5 DUP2 PUSH2 0x241 JUMP JUMPDEST DUP3 MSTORE POP POP JUMP JUMPDEST PUSH0 PUSH1 0x20 DUP3 ADD SWAP1 POP PUSH2 0x2EE PUSH0 DUP4 ADD DUP5 PUSH2 0x2CC JUMP JUMPDEST SWAP3 SWAP2 POP POP JUMP JUMPDEST PUSH1 0x80 MLOAD PUSH1 0xA0 MLOAD PUSH1 0xC0 MLOAD PUSH2 0x3198 PUSH2 0x356 PUSH0 CODECOPY PUSH0 DUP2 DUP2 PUSH2 0xB91 ADD MSTORE DUP2 DUP2 PUSH2 0xC55 ADD MSTORE DUP2 DUP2 PUSH2 0xE92 ADD MSTORE DUP2 DUP2 PUSH2 0x16AB ADD MSTORE DUP2 DUP2 PUSH2 0x1720 ADD MSTORE PUSH2 0x188C ADD MSTORE PUSH0 DUP2 DUP2 PUSH2 0xAD5 ADD MSTORE PUSH2 0x142E ADD MSTORE PUSH0 DUP2 DUP2 PUSH2 0x394 ADD MSTORE DUP2 DUP2 PUSH2 0x1A7C ADD MSTORE PUSH2 0x1BE6 ADD MSTORE PUSH2 0x3198 PUSH0 RETURN INVALID PUSH1 0x80 PUSH1 0x40 MSTORE CALLVALUE DUP1 ISZERO PUSH2 0xF JUMPI PUSH0 PUSH0 REVERT JUMPDEST POP PUSH1 0x4 CALLDATASIZE LT PUSH2 0xF3 JUMPI PUSH0 CALLDATALOAD PUSH1 0xE0 SHR DUP1 PUSH4 0x8DA5CB5B GT PUSH2 0x95 JUMPI DUP1 PUSH4 0xE7C5A6E8 GT PUSH2 0x64 JUMPI DUP1 PUSH4 0xE7C5A6E8 EQ PUSH2 0x25E JUMPI DUP1 PUSH4 0xE9CBD822 EQ PUSH2 0x27A JUMPI DUP1 PUSH4 0xEBB08D87 EQ PUSH2 0x298 JUMPI DUP1 PUSH4 0xF2FDE38B EQ PUSH2 0x2B4 JUMPI PUSH2 0xF3 JUMP JUMPDEST DUP1 PUSH4 0x8DA5CB5B EQ PUSH2 0x1D6 JUMPI DUP1 PUSH4 0xAC1F5CF9 EQ PUSH2 0x1F4 JUMPI DUP1 PUSH4 0xC3920DDC EQ PUSH2 0x212 JUMPI DUP1 PUSH4 0xD80989ED EQ PUSH2 0x22E JUMPI PUSH2 0xF3 JUMP JUMPDEST DUP1 PUSH4 0xEC9A49C GT PUSH2 0xD1 JUMPI DUP1 PUSH4 0xEC9A49C EQ PUSH2 0x14F JUMPI DUP1 PUSH4 0x1D3C9B9B EQ PUSH2 0x180 JUMPI DUP1 PUSH4 0x5B79175C EQ PUSH2 0x19C JUMPI DUP1 PUSH4 0x715018A6 EQ PUSH2 0x1CC JUMPI PUSH2 0xF3 JUMP JUMPDEST DUP1 PUSH4 0x1681A62 EQ PUSH2 0xF7 JUMPI DUP1 PUSH4 0x758D924 EQ PUSH2 0x113 JUMPI DUP1 PUSH4 0x77E21F5 EQ PUSH2 0x131 JUMPI JUMPDEST PUSH0 PUSH0 REVERT JUMPDEST PUSH2 0x111 PUSH1 0x4 DUP1 CALLDATASIZE SUB DUP2 ADD SWAP1 PUSH2 0x10C SWAP2 SWAP1 PUSH2 0x1D9E JUMP JUMPDEST PUSH2 0x2D0 JUMP JUMPDEST STOP JUMPDEST PUSH2 0x11B PUSH2 0x392 JUMP JUMPDEST PUSH1 0x40 MLOAD PUSH2 0x128 SWAP2 SWAP1 PUSH2 0x1E24 JUMP JUMPDEST PUSH1 0x40 MLOAD DUP1 SWAP2 SUB SWAP1 RETURN JUMPDEST PUSH2 0x139 PUSH2 0x3B6 JUMP JUMPDEST PUSH1 0x40 MLOAD PUSH2 0x146 SWAP2 SWAP1 PUSH2 0x1E4C JUMP JUMPDEST PUSH1 0x40 MLOAD DUP1 SWAP2 SUB SWAP1 RETURN JUMPDEST PUSH2 0x169 PUSH1 0x4 DUP1 CALLDATASIZE SUB DUP2 ADD SWAP1 PUSH2 0x164 SWAP2 SWAP1 PUSH2 0x1EC6 JUMP JUMPDEST PUSH2 0x3DB JUMP JUMPDEST PUSH1 0x40 MLOAD PUSH2 0x177 SWAP3 SWAP2 SWAP1 PUSH2 0x1FE3 JUMP JUMPDEST PUSH1 0x40 MLOAD DUP1 SWAP2 SUB SWAP1 RETURN JUMPDEST PUSH2 0x19A PUSH1 0x4 DUP1 CALLDATASIZE SUB DUP2 ADD SWAP1 PUSH2 0x195 SWAP2 SWAP1 PUSH2 0x206D JUMP JUMPDEST PUSH2 0x621 JUMP JUMPDEST STOP JUMPDEST PUSH2 0x1B6 PUSH1 0x4 DUP1 CALLDATASIZE SUB DUP2 ADD SWAP1 PUSH2 0x1B1 SWAP2 SWAP1 PUSH2 0x1D9E JUMP JUMPDEST PUSH2 0xA75 JUMP JUMPDEST PUSH1 0x40 MLOAD PUSH2 0x1C3 SWAP2 SWAP1 PUSH2 0x2153 JUMP JUMPDEST PUSH1 0x40 MLOAD DUP1 SWAP2 SUB SWAP1 RETURN JUMPDEST PUSH2 0x1D4 PUSH2 0xA99 JUMP JUMPDEST STOP JUMPDEST PUSH2 0x1DE PUSH2 0xAAC JUMP JUMPDEST PUSH1 0x40 MLOAD PUSH2 0x1EB SWAP2 SWAP1 PUSH2 0x1E4C JUMP JUMPDEST PUSH1 0x40 MLOAD DUP1 SWAP2 SUB SWAP1 RETURN JUMPDEST PUSH2 0x1FC PUSH2 0xAD3 JUMP JUMPDEST PUSH1 0x40 MLOAD PUSH2 0x209 SWAP2 SWAP1 PUSH2 0x218C JUMP JUMPDEST PUSH1 0x40 MLOAD DUP1 SWAP2 SUB SWAP1 RETURN JUMPDEST PUSH2 0x22C PUSH1 0x4 DUP1 CALLDATASIZE SUB DUP2 ADD SWAP1 PUSH2 0x227 SWAP2 SWAP1 PUSH2 0x21CF JUMP JUMPDEST PUSH2 0xAF7 JUMP JUMPDEST STOP JUMPDEST PUSH2 0x248 PUSH1 0x4 DUP1 CALLDATASIZE SUB DUP2 ADD SWAP1 PUSH2 0x243 SWAP2 SWAP1 PUSH2 0x2398 JUMP JUMPDEST PUSH2 0xD4C JUMP JUMPDEST PUSH1 0x40 MLOAD PUSH2 0x255 SWAP2 SWAP1 PUSH2 0x1E4C JUMP JUMPDEST PUSH1 0x40 MLOAD DUP1 SWAP2 SUB SWAP1 RETURN JUMPDEST PUSH2 0x278 PUSH1 0x4 DUP1 CALLDATASIZE SUB DUP2 ADD SWAP1 PUSH2 0x273 SWAP2 SWAP1 PUSH2 0x1D9E JUMP JUMPDEST PUSH2 0xD94 JUMP JUMPDEST STOP JUMPDEST PUSH2 0x282 PUSH2 0xE90 JUMP JUMPDEST PUSH1 0x40 MLOAD PUSH2 0x28F SWAP2 SWAP1 PUSH2 0x23FF JUMP JUMPDEST PUSH1 0x40 MLOAD DUP1 SWAP2 SUB SWAP1 RETURN JUMPDEST PUSH2 0x2B2 PUSH1 0x4 DUP1 CALLDATASIZE SUB DUP2 ADD SWAP1 PUSH2 0x2AD SWAP2 SWAP1 PUSH2 0x2497 JUMP JUMPDEST PUSH2 0xEB4 JUMP JUMPDEST STOP JUMPDEST PUSH2 0x2CE PUSH1 0x4 DUP1 CALLDATASIZE SUB DUP2 ADD SWAP1 PUSH2 0x2C9 SWAP2 SWAP1 PUSH2 0x1D9E JUMP JUMPDEST PUSH2 0x1057 JUMP JUMPDEST STOP JUMPDEST PUSH2 0x2D8 PUSH2 0x10DB JUMP JUMPDEST PUSH0 DUP2 PUSH20 0xFFFFFFFFFFFFFFFFFFFFFFFFFFFFFFFFFFFFFFFF AND PUSH4 0x70A08231 ADDRESS PUSH1 0x40 MLOAD DUP3 PUSH4 0xFFFFFFFF AND PUSH1 0xE0 SHL DUP2 MSTORE PUSH1 0x4 ADD PUSH2 0x312 SWAP2 SWAP1 PUSH2 0x1E4C JUMP JUMPDEST PUSH1 0x20 PUSH1 0x40 MLOAD DUP1 DUP4 SUB DUP2 DUP7 GAS STATICCALL ISZERO DUP1 ISZERO PUSH2 0x32D JUMPI RETURNDATASIZE PUSH0 PUSH0 RETURNDATACOPY RETURNDATASIZE PUSH0 REVERT JUMPDEST POP POP POP POP PUSH1 0x40 MLOAD RETURNDATASIZE PUSH1 0x1F NOT PUSH1 0x1F DUP3 ADD AND DUP3 ADD DUP1 PUSH1 0x40 MSTORE POP DUP2 ADD SWAP1 PUSH2 0x351 SWAP2 SWAP1 PUSH2 0x251C JUMP JUMPDEST SWAP1 POP PUSH0 DUP2 GT ISZERO PUSH2 0x38E JUMPI PUSH2 0x38D PUSH2 0x366 PUSH2 0xAAC JUMP JUMPDEST DUP3 DUP5 PUSH20 0xFFFFFFFFFFFFFFFFFFFFFFFFFFFFFFFFFFFFFFFF AND PUSH2 0x1162 SWAP1 SWAP3 SWAP2 SWAP1 PUSH4 0xFFFFFFFF AND JUMP JUMPDEST JUMPDEST POP POP JUMP JUMPDEST PUSH32 0x0 DUP2 JUMP JUMPDEST PUSH1 0x2 PUSH0 SWAP1 SLOAD SWAP1 PUSH2 0x100 EXP SWAP1 DIV PUSH20 0xFFFFFFFFFFFFFFFFFFFFFFFFFFFFFFFFFFFFFFFF AND DUP2 JUMP JUMPDEST PUSH1 0x60 DUP1 PUSH0 PUSH2 0x3EA DUP7 DUP7 DUP7 PUSH2 0x11E1 JUMP JUMPDEST SWAP1 POP DUP5 DUP5 SWAP1 POP PUSH8 0xFFFFFFFFFFFFFFFF DUP2 GT ISZERO PUSH2 0x409 JUMPI PUSH2 0x408 PUSH2 0x2274 JUMP JUMPDEST JUMPDEST PUSH1 0x40 MLOAD SWAP1 DUP1 DUP3 MSTORE DUP1 PUSH1 0x20 MUL PUSH1 0x20 ADD DUP3 ADD PUSH1 0x40 MSTORE DUP1 ISZERO PUSH2 0x437 JUMPI DUP2 PUSH1 0x20 ADD PUSH1 0x20 DUP3 MUL DUP1 CALLDATASIZE DUP4 CALLDATACOPY DUP1 DUP3 ADD SWAP2 POP POP SWAP1 POP JUMPDEST POP SWAP3 POP DUP5 DUP5 SWAP1 POP PUSH8 0xFFFFFFFFFFFFFFFF DUP2 GT ISZERO PUSH2 0x457 JUMPI PUSH2 0x456 PUSH2 0x2274 JUMP JUMPDEST JUMPDEST PUSH1 0x40 MLOAD SWAP1 DUP1 DUP3 MSTORE DUP1 PUSH1 0x20 MUL PUSH1 0x20 ADD DUP3 ADD PUSH1 0x40 MSTORE DUP1 ISZERO PUSH2 0x485 JUMPI DUP2 PUSH1 0x20 ADD PUSH1 0x20 DUP3 MUL DUP1 CALLDATASIZE DUP4 CALLDATACOPY DUP1 DUP3 ADD SWAP2 POP POP SWAP1 POP JUMPDEST POP SWAP2 POP PUSH0 PUSH0 SWAP1 POP JUMPDEST DUP6 DUP6 SWAP1 POP DUP2 LT ISZERO PUSH2 0x617 JUMPI PUSH0 DUP7 DUP7 DUP4 DUP2 DUP2 LT PUSH2 0x4AC JUMPI PUSH2 0x4AB PUSH2 0x2547 JUMP JUMPDEST JUMPDEST SWAP1 POP PUSH1 0x40 MUL ADD DUP1 CALLDATASIZE SUB DUP2 ADD SWAP1 PUSH2 0x4C2 SWAP2 SWAP1 PUSH2 0x25C5 JUMP JUMPDEST SWAP1 POP PUSH0 PUSH2 0x4D2 DUP10 DUP4 PUSH0 ADD MLOAD PUSH2 0x124F JUMP JUMPDEST SWAP1 POP PUSH0 PUSH2 0x2710 DUP4 PUSH1 0x20 ADD MLOAD DUP7 PUSH2 0x4E8 SWAP2 SWAP1 PUSH2 0x261D JUMP JUMPDEST PUSH2 0x4F2 SWAP2 SWAP1 PUSH2 0x268B JUMP JUMPDEST SWAP1 POP DUP1 DUP3 GT ISZERO PUSH2 0x5D2 JUMPI PUSH0 DUP2 DUP4 PUSH2 0x509 SWAP2 SWAP1 PUSH2 0x26BB JUMP JUMPDEST SWAP1 POP PUSH0 PUSH2 0x518 DUP6 PUSH0 ADD MLOAD PUSH2 0x1389 JUMP JUMPDEST SWAP1 POP DUP1 DUP6 PUSH0 ADD MLOAD PUSH20 0xFFFFFFFFFFFFFFFFFFFFFFFFFFFFFFFFFFFFFFFF AND PUSH4 0x313CE567 PUSH1 0x40 MLOAD DUP2 PUSH4 0xFFFFFFFF AND PUSH1 0xE0 SHL DUP2 MSTORE PUSH1 0x4 ADD PUSH1 0x20 PUSH1 0x40 MLOAD DUP1 DUP4 SUB DUP2 DUP7 GAS STATICCALL ISZERO DUP1 ISZERO PUSH2 0x567 JUMPI RETURNDATASIZE PUSH0 PUSH0 RETURNDATACOPY RETURNDATASIZE PUSH0 REVERT JUMPDEST POP POP POP POP PUSH1 0x40 MLOAD RETURNDATASIZE PUSH1 0x1F NOT PUSH1 0x1F DUP3 ADD AND DUP3 ADD DUP1 PUSH1 0x40 MSTORE POP DUP2 ADD SWAP1 PUSH2 0x58B SWAP2 SWAP1 PUSH2 0x2724 JUMP JUMPDEST PUSH1 0xA PUSH2 0x597 SWAP2 SWAP1 PUSH2 0x287E JUMP JUMPDEST DUP4 PUSH2 0x5A2 SWAP2 SWAP1 PUSH2 0x261D JUMP JUMPDEST PUSH2 0x5AC SWAP2 SWAP1 PUSH2 0x268B JUMP JUMPDEST DUP10 DUP8 DUP2 MLOAD DUP2 LT PUSH2 0x5BF JUMPI PUSH2 0x5BE PUSH2 0x2547 JUMP JUMPDEST JUMPDEST PUSH1 0x20 MUL PUSH1 0x20 ADD ADD DUP2 DUP2 MSTORE POP POP POP POP PUSH2 0x607 JUMP JUMPDEST DUP1 DUP3 LT ISZERO PUSH2 0x606 JUMPI DUP2 DUP2 PUSH2 0x5E6 SWAP2 SWAP1 PUSH2 0x26BB JUMP JUMPDEST DUP7 DUP6 DUP2 MLOAD DUP2 LT PUSH2 0x5F9 JUMPI PUSH2 0x5F8 PUSH2 0x2547 JUMP JUMPDEST JUMPDEST PUSH1 0x20 MUL PUSH1 0x20 ADD ADD DUP2 DUP2 MSTORE POP POP JUMPDEST JUMPDEST POP POP POP DUP1 DUP1 PUSH1 0x1 ADD SWAP2 POP POP PUSH2 0x48D JUMP JUMPDEST POP POP SWAP4 POP SWAP4 SWAP2 POP POP JUMP JUMPDEST PUSH2 0x629 PUSH2 0x15B2 JUMP JUMPDEST PUSH1 0x2 PUSH0 SWAP1 SLOAD SWAP1 PUSH2 0x100 EXP SWAP1 DIV PUSH20 0xFFFFFFFFFFFFFFFFFFFFFFFFFFFFFFFFFFFFFFFF AND PUSH20 0xFFFFFFFFFFFFFFFFFFFFFFFFFFFFFFFFFFFFFFFF AND CALLER PUSH20 0xFFFFFFFFFFFFFFFFFFFFFFFFFFFFFFFFFFFFFFFF AND EQ DUP1 PUSH2 0x6B6 JUMPI POP PUSH2 0x687 PUSH2 0xAAC JUMP JUMPDEST PUSH20 0xFFFFFFFFFFFFFFFFFFFFFFFFFFFFFFFFFFFFFFFF AND CALLER PUSH20 0xFFFFFFFFFFFFFFFFFFFFFFFFFFFFFFFFFFFFFFFF AND EQ JUMPDEST DUP1 PUSH2 0x6EC JUMPI POP DUP7 PUSH20 0xFFFFFFFFFFFFFFFFFFFFFFFFFFFFFFFFFFFFFFFF AND CALLER PUSH20 0xFFFFFFFFFFFFFFFFFFFFFFFFFFFFFFFFFFFFFFFF AND EQ JUMPDEST PUSH2 0x72B JUMPI PUSH1 0x40 MLOAD PUSH32 0x8C379A000000000000000000000000000000000000000000000000000000000 DUP2 MSTORE PUSH1 0x4 ADD PUSH2 0x722 SWAP1 PUSH2 0x2922 JUMP JUMPDEST PUSH1 0x40 MLOAD DUP1 SWAP2 SUB SWAP1 REVERT JUMPDEST DUP4 DUP4 SWAP1 POP DUP7 DUP7 SWAP1 POP EQ DUP1 ISZERO PUSH2 0x745 JUMPI POP DUP2 DUP2 SWAP1 POP DUP7 DUP7 SWAP1 POP EQ JUMPDEST PUSH2 0x784 JUMPI PUSH1 0x40 MLOAD PUSH32 0x8C379A000000000000000000000000000000000000000000000000000000000 DUP2 MSTORE PUSH1 0x4 ADD PUSH2 0x77B SWAP1 PUSH2 0x298A JUMP JUMPDEST PUSH1 0x40 MLOAD DUP1 SWAP2 SUB SWAP1 REVERT JUMPDEST PUSH0 PUSH2 0x790 DUP9 DUP9 DUP9 PUSH2 0x11E1 JUMP JUMPDEST SWAP1 POP PUSH0 DUP2 GT PUSH2 0x7D4 JUMPI PUSH1 0x40 MLOAD PUSH32 0x8C379A000000000000000000000000000000000000000000000000000000000 DUP2 MSTORE PUSH1 0x4 ADD PUSH2 0x7CB SWAP1 PUSH2 0x2A18 JUMP JUMPDEST PUSH1 0x40 MLOAD DUP1 SWAP2 SUB SWAP1 REVERT JUMPDEST PUSH0 DUP8 DUP8 SWAP1 POP PUSH8 0xFFFFFFFFFFFFFFFF DUP2 GT ISZERO PUSH2 0x7F2 JUMPI PUSH2 0x7F1 PUSH2 0x2274 JUMP JUMPDEST JUMPDEST PUSH1 0x40 MLOAD SWAP1 DUP1 DUP3 MSTORE DUP1 PUSH1 0x20 MUL PUSH1 0x20 ADD DUP3 ADD PUSH1 0x40 MSTORE DUP1 ISZERO PUSH2 0x820 JUMPI DUP2 PUSH1 0x20 ADD PUSH1 0x20 DUP3 MUL DUP1 CALLDATASIZE DUP4 CALLDATACOPY DUP1 DUP3 ADD SWAP2 POP POP SWAP1 POP JUMPDEST POP SWAP1 POP PUSH0 DUP9 DUP9 SWAP1 POP PUSH8 0xFFFFFFFFFFFFFFFF DUP2 GT ISZERO PUSH2 0x841 JUMPI PUSH2 0x840 PUSH2 0x2274 JUMP JUMPDEST JUMPDEST PUSH1 0x40 MLOAD SWAP1 DUP1 DUP3 MSTORE DUP1 PUSH1 0x20 MUL PUSH1 0x20 ADD DUP3 ADD PUSH1 0x40 MSTORE DUP1 ISZERO PUSH2 0x86F JUMPI DUP2 PUSH1 0x20 ADD PUSH1 0x20 DUP3 MUL DUP1 CALLDATASIZE DUP4 CALLDATACOPY DUP1 DUP3 ADD SWAP2 POP POP SWAP1 POP JUMPDEST POP SWAP1 POP PUSH0 PUSH0 SWAP1 POP JUMPDEST DUP10 DUP10 SWAP1 POP DUP2 LT ISZERO PUSH2 0xA01 JUMPI PUSH0 DUP11 DUP11 DUP4 DUP2 DUP2 LT PUSH2 0x896 JUMPI PUSH2 0x895 PUSH2 0x2547 JUMP JUMPDEST JUMPDEST SWAP1 POP PUSH1 0x40 MUL ADD DUP1 CALLDATASIZE SUB DUP2 ADD SWAP1 PUSH2 0x8AC SWAP2 SWAP1 PUSH2 0x25C5 JUMP JUMPDEST SWAP1 POP PUSH0 PUSH2 0x8BC DUP14 DUP4 PUSH0 ADD MLOAD PUSH2 0x124F JUMP JUMPDEST SWAP1 POP PUSH0 PUSH2 0x2710 DUP4 PUSH1 0x20 ADD MLOAD DUP9 PUSH2 0x8D2 SWAP2 SWAP1 PUSH2 0x261D JUMP JUMPDEST PUSH2 0x8DC SWAP2 SWAP1 PUSH2 0x268B JUMP JUMPDEST SWAP1 POP DUP1 DUP3 GT ISZERO PUSH2 0x9BC JUMPI PUSH0 DUP2 DUP4 PUSH2 0x8F3 SWAP2 SWAP1 PUSH2 0x26BB JUMP JUMPDEST SWAP1 POP PUSH0 PUSH2 0x902 DUP6 PUSH0 ADD MLOAD PUSH2 0x1389 JUMP JUMPDEST SWAP1 POP DUP1 DUP6 PUSH0 ADD MLOAD PUSH20 0xFFFFFFFFFFFFFFFFFFFFFFFFFFFFFFFFFFFFFFFF AND PUSH4 0x313CE567 PUSH1 0x40 MLOAD DUP2 PUSH4 0xFFFFFFFF AND PUSH1 0xE0 SHL DUP2 MSTORE PUSH1 0x4 ADD PUSH1 0x20 PUSH1 0x40 MLOAD DUP1 DUP4 SUB DUP2 DUP7 GAS STATICCALL ISZERO DUP1 ISZERO PUSH2 0x951 JUMPI RETURNDATASIZE PUSH0 PUSH0 RETURNDATACOPY RETURNDATASIZE PUSH0 REVERT JUMPDEST POP POP POP POP PUSH1 0x40 MLOAD RETURNDATASIZE PUSH1 0x1F NOT PUSH1 0x1F DUP3 ADD AND DUP3 ADD DUP1 PUSH1 0x40 MSTORE POP DUP2 ADD SWAP1 PUSH2 0x975 SWAP2 SWAP1 PUSH2 0x2724 JUMP JUMPDEST PUSH1 0xA PUSH2 0x981 SWAP2 SWAP1 PUSH2 0x287E JUMP JUMPDEST DUP4 PUSH2 0x98C SWAP2 SWAP1 PUSH2 0x261D JUMP JUMPDEST PUSH2 0x996 SWAP2 SWAP1 PUSH2 0x268B JUMP JUMPDEST DUP9 DUP8 DUP2 MLOAD DUP2 LT PUSH2 0x9A9 JUMPI PUSH2 0x9A8 PUSH2 0x2547 JUMP JUMPDEST JUMPDEST PUSH1 0x20 MUL PUSH1 0x20 ADD ADD DUP2 DUP2 MSTORE POP POP POP POP PUSH2 0x9F1 JUMP JUMPDEST DUP1 DUP3 LT ISZERO PUSH2 0x9F0 JUMPI DUP2 DUP2 PUSH2 0x9D0 SWAP2 SWAP1 PUSH2 0x26BB JUMP JUMPDEST DUP6 DUP6 DUP2 MLOAD DUP2 LT PUSH2 0x9E3 JUMPI PUSH2 0x9E2 PUSH2 0x2547 JUMP JUMPDEST JUMPDEST PUSH1 0x20 MUL PUSH1 0x20 ADD ADD DUP2 DUP2 MSTORE POP POP JUMPDEST JUMPDEST POP POP POP DUP1 DUP1 PUSH1 0x1 ADD SWAP2 POP POP PUSH2 0x877 JUMP JUMPDEST POP PUSH2 0xA10 DUP11 DUP11 DUP11 DUP6 DUP12 DUP12 PUSH2 0x1601 JUMP JUMPDEST PUSH2 0xA1E DUP11 DUP11 DUP11 DUP5 DUP10 DUP10 PUSH2 0x171D JUMP JUMPDEST DUP10 PUSH20 0xFFFFFFFFFFFFFFFFFFFFFFFFFFFFFFFFFFFFFFFF AND PUSH32 0x4B7C2781AF32CB28916C684579E4C166D4E48E9A8B4C6045DE00A632D7D433D7 PUSH1 0x40 MLOAD PUSH1 0x40 MLOAD DUP1 SWAP2 SUB SWAP1 LOG2 POP POP POP PUSH2 0xA6C PUSH2 0x1912 JUMP JUMPDEST POP POP POP POP POP POP POP JUMP JUMPDEST PUSH1 0x4 PUSH1 0x20 MSTORE DUP1 PUSH0 MSTORE PUSH1 0x40 PUSH0 KECCAK256 PUSH0 SWAP2 POP SLOAD SWAP1 PUSH2 0x100 EXP SWAP1 DIV PUSH8 0xFFFFFFFFFFFFFFFF AND DUP2 JUMP JUMPDEST PUSH2 0xAA1 PUSH2 0x10DB JUMP JUMPDEST PUSH2 0xAAA PUSH0 PUSH2 0x191B JUMP JUMPDEST JUMP JUMPDEST PUSH0 PUSH0 PUSH0 SWAP1 SLOAD SWAP1 PUSH2 0x100 EXP SWAP1 DIV PUSH20 0xFFFFFFFFFFFFFFFFFFFFFFFFFFFFFFFFFFFFFFFF AND SWAP1 POP SWAP1 JUMP JUMPDEST PUSH32 0x0 DUP2 JUMP JUMPDEST PUSH2 0xAFF PUSH2 0x15B2 JUMP JUMPDEST PUSH0 DUP4 GT PUSH2 0xB41 JUMPI PUSH1 0x40 MLOAD PUSH32 0x8C379A000000000000000000000000000000000000000000000000000000000 DUP2 MSTORE PUSH1 0x4 ADD PUSH2 0xB38 SWAP1 PUSH2 0x2A80 JUMP JUMPDEST PUSH1 0x40 MLOAD DUP1 SWAP2 SUB SWAP1 REVERT JUMPDEST DUP2 DUP2 SWAP1 POP DUP6 DUP6 SWAP1 POP EQ PUSH2 0xB89 JUMPI PUSH1 0x40 MLOAD PUSH32 0x8C379A000000000000000000000000000000000000000000000000000000000 DUP2 MSTORE PUSH1 0x4 ADD PUSH2 0xB80 SWAP1 PUSH2 0x298A JUMP JUMPDEST PUSH1 0x40 MLOAD DUP1 SWAP2 SUB SWAP1 REVERT JUMPDEST PUSH2 0xBD6 CALLER ADDRESS DUP6 PUSH32 0x0 PUSH20 0xFFFFFFFFFFFFFFFFFFFFFFFFFFFFFFFFFFFFFFFF AND PUSH2 0x19DC SWAP1 SWAP4 SWAP3 SWAP2 SWAP1 PUSH4 0xFFFFFFFF AND JUMP JUMPDEST PUSH0 PUSH0 SWAP1 POP PUSH0 PUSH0 SWAP1 POP JUMPDEST DUP7 DUP7 SWAP1 POP DUP2 LT ISZERO PUSH2 0xCA9 JUMPI PUSH0 DUP8 DUP8 DUP4 DUP2 DUP2 LT PUSH2 0xBFE JUMPI PUSH2 0xBFD PUSH2 0x2547 JUMP JUMPDEST JUMPDEST SWAP1 POP PUSH1 0x40 MUL ADD DUP1 CALLDATASIZE SUB DUP2 ADD SWAP1 PUSH2 0xC14 SWAP2 SWAP1 PUSH2 0x25C5 JUMP JUMPDEST SWAP1 POP DUP1 PUSH1 0x20 ADD MLOAD DUP4 PUSH2 0xC26 SWAP2 SWAP1 PUSH2 0x2A9E JUMP JUMPDEST SWAP3 POP PUSH0 PUSH2 0x2710 DUP3 PUSH1 0x20 ADD MLOAD DUP9 PUSH2 0xC3C SWAP2 SWAP1 PUSH2 0x261D JUMP JUMPDEST PUSH2 0xC46 SWAP2 SWAP1 PUSH2 0x268B JUMP JUMPDEST SWAP1 POP PUSH0 DUP2 GT ISZERO PUSH2 0xC9A JUMPI PUSH2 0xC99 PUSH32 0x0 DUP4 PUSH0 ADD MLOAD DUP4 DUP10 DUP10 DUP9 DUP2 DUP2 LT PUSH2 0xC8C JUMPI PUSH2 0xC8B PUSH2 0x2547 JUMP JUMPDEST JUMPDEST SWAP1 POP PUSH1 0x20 MUL ADD CALLDATALOAD CALLER PUSH2 0x1A5E JUMP JUMPDEST JUMPDEST POP POP DUP1 DUP1 PUSH1 0x1 ADD SWAP2 POP POP PUSH2 0xBDF JUMP JUMPDEST POP PUSH2 0x2710 DUP2 EQ PUSH2 0xCEE JUMPI PUSH1 0x40 MLOAD PUSH32 0x8C379A000000000000000000000000000000000000000000000000000000000 DUP2 MSTORE PUSH1 0x4 ADD PUSH2 0xCE5 SWAP1 PUSH2 0x2B1B JUMP JUMPDEST PUSH1 0x40 MLOAD DUP1 SWAP2 SUB SWAP1 REVERT JUMPDEST CALLER PUSH20 0xFFFFFFFFFFFFFFFFFFFFFFFFFFFFFFFFFFFFFFFF AND PUSH32 0x1CCF10CF2399A9E48A62B8A7D390FEB890BF43CC52A23F5A83C392B8D5E64716 DUP6 PUSH1 0x40 MLOAD PUSH2 0xD34 SWAP2 SWAP1 PUSH2 0x2B48 JUMP JUMPDEST PUSH1 0x40 MLOAD DUP1 SWAP2 SUB SWAP1 LOG2 POP PUSH2 0xD45 PUSH2 0x1912 JUMP JUMPDEST POP POP POP POP POP JUMP JUMPDEST PUSH1 0x3 DUP2 DUP1 MLOAD PUSH1 0x20 DUP2 ADD DUP3 ADD DUP1 MLOAD DUP5 DUP3 MSTORE PUSH1 0x20 DUP4 ADD PUSH1 0x20 DUP6 ADD KECCAK256 DUP2 DUP4 MSTORE DUP1 SWAP6 POP POP POP POP POP POP PUSH0 SWAP2 POP SLOAD SWAP1 PUSH2 0x100 EXP SWAP1 DIV PUSH20 0xFFFFFFFFFFFFFFFFFFFFFFFFFFFFFFFFFFFFFFFF AND DUP2 JUMP JUMPDEST PUSH2 0xD9C PUSH2 0x10DB JUMP JUMPDEST PUSH0 PUSH20 0xFFFFFFFFFFFFFFFFFFFFFFFFFFFFFFFFFFFFFFFF AND DUP2 PUSH20 0xFFFFFFFFFFFFFFFFFFFFFFFFFFFFFFFFFFFFFFFF AND SUB PUSH2 0xE0A JUMPI PUSH1 0x40 MLOAD PUSH32 0x8C379A000000000000000000000000000000000000000000000000000000000 DUP2 MSTORE PUSH1 0x4 ADD PUSH2 0xE01 SWAP1 PUSH2 0x2BAB JUMP JUMPDEST PUSH1 0x40 MLOAD DUP1 SWAP2 SUB SWAP1 REVERT JUMPDEST DUP1 PUSH1 0x2 PUSH0 PUSH2 0x100 EXP DUP2 SLOAD DUP2 PUSH20 0xFFFFFFFFFFFFFFFFFFFFFFFFFFFFFFFFFFFFFFFF MUL NOT AND SWAP1 DUP4 PUSH20 0xFFFFFFFFFFFFFFFFFFFFFFFFFFFFFFFFFFFFFFFF AND MUL OR SWAP1 SSTORE POP DUP1 PUSH20 0xFFFFFFFFFFFFFFFFFFFFFFFFFFFFFFFFFFFFFFFF AND PUSH32 0xC204AC232C537A1868633339726708C068266D6DB4B719603647317F83EB0787 PUSH1 0x40 MLOAD PUSH1 0x40 MLOAD DUP1 SWAP2 SUB SWAP1 LOG2 POP JUMP JUMPDEST PUSH32 0x0 DUP2 JUMP JUMPDEST PUSH2 0xEBC PUSH2 0x10DB JUMP JUMPDEST PUSH0 PUSH20 0xFFFFFFFFFFFFFFFFFFFFFFFFFFFFFFFFFFFFFFFF AND DUP3 PUSH20 0xFFFFFFFFFFFFFFFFFFFFFFFFFFFFFFFFFFFFFFFF AND SUB PUSH2 0xF2A JUMPI PUSH1 0x40 MLOAD PUSH32 0x8C379A000000000000000000000000000000000000000000000000000000000 DUP2 MSTORE PUSH1 0x4 ADD PUSH2 0xF21 SWAP1 PUSH2 0x2C13 JUMP JUMPDEST PUSH1 0x40 MLOAD DUP1 SWAP2 SUB SWAP1 REVERT JUMPDEST DUP2 PUSH1 0x3 DUP6 DUP6 PUSH1 0x40 MLOAD PUSH2 0xF3D SWAP3 SWAP2 SWAP1 PUSH2 0x2C5F JUMP JUMPDEST SWAP1 DUP2 MSTORE PUSH1 0x20 ADD PUSH1 0x40 MLOAD DUP1 SWAP2 SUB SWAP1 KECCAK256 PUSH0 PUSH2 0x100 EXP DUP2 SLOAD DUP2 PUSH20 0xFFFFFFFFFFFFFFFFFFFFFFFFFFFFFFFFFFFFFFFF MUL NOT AND SWAP1 DUP4 PUSH20 0xFFFFFFFFFFFFFFFFFFFFFFFFFFFFFFFFFFFFFFFF AND MUL OR SWAP1 SSTORE POP DUP1 PUSH1 0x4 PUSH0 DUP5 PUSH20 0xFFFFFFFFFFFFFFFFFFFFFFFFFFFFFFFFFFFFFFFF AND PUSH20 0xFFFFFFFFFFFFFFFFFFFFFFFFFFFFFFFFFFFFFFFF AND DUP2 MSTORE PUSH1 0x20 ADD SWAP1 DUP2 MSTORE PUSH1 0x20 ADD PUSH0 KECCAK256 PUSH0 PUSH2 0x100 EXP DUP2 SLOAD DUP2 PUSH8 0xFFFFFFFFFFFFFFFF MUL NOT AND SWAP1 DUP4 PUSH8 0xFFFFFFFFFFFFFFFF AND MUL OR SWAP1 SSTORE POP DUP2 PUSH20 0xFFFFFFFFFFFFFFFFFFFFFFFFFFFFFFFFFFFFFFFF AND DUP5 DUP5 PUSH1 0x40 MLOAD PUSH2 0x1012 SWAP3 SWAP2 SWAP1 PUSH2 0x2C5F JUMP JUMPDEST PUSH1 0x40 MLOAD DUP1 SWAP2 SUB SWAP1 KECCAK256 PUSH32 0xD9A3F626CFDE126B60E5FC543DBD0A1167BDC926499154FD6A5A86FFB3B0646F DUP4 PUSH1 0x40 MLOAD PUSH2 0x1049 SWAP2 SWAP1 PUSH2 0x2153 JUMP JUMPDEST PUSH1 0x40 MLOAD DUP1 SWAP2 SUB SWAP1 LOG3 POP POP POP POP JUMP JUMPDEST PUSH2 0x105F PUSH2 0x10DB JUMP JUMPDEST PUSH0 PUSH20 0xFFFFFFFFFFFFFFFFFFFFFFFFFFFFFFFFFFFFFFFF AND DUP2 PUSH20 0xFFFFFFFFFFFFFFFFFFFFFFFFFFFFFFFFFFFFFFFF AND SUB PUSH2 0x10CF JUMPI PUSH0 PUSH1 0x40 MLOAD PUSH32 0x1E4FBDF700000000000000000000000000000000000000000000000000000000 DUP2 MSTORE PUSH1 0x4 ADD PUSH2 0x10C6 SWAP2 SWAP1 PUSH2 0x1E4C JUMP JUMPDEST PUSH1 0x40 MLOAD DUP1 SWAP2 SUB SWAP1 REVERT JUMPDEST PUSH2 0x10D8 DUP2 PUSH2 0x191B JUMP JUMPDEST POP JUMP JUMPDEST PUSH2 0x10E3 PUSH2 0x1C91 JUMP JUMPDEST PUSH20 0xFFFFFFFFFFFFFFFFFFFFFFFFFFFFFFFFFFFFFFFF AND PUSH2 0x1101 PUSH2 0xAAC JUMP JUMPDEST PUSH20 0xFFFFFFFFFFFFFFFFFFFFFFFFFFFFFFFFFFFFFFFF AND EQ PUSH2 0x1160 JUMPI PUSH2 0x1124 PUSH2 0x1C91 JUMP JUMPDEST PUSH1 0x40 MLOAD PUSH32 0x118CDAA700000000000000000000000000000000000000000000000000000000 DUP2 MSTORE PUSH1 0x4 ADD PUSH2 0x1157 SWAP2 SWAP1 PUSH2 0x1E4C JUMP JUMPDEST PUSH1 0x40 MLOAD DUP1 SWAP2 SUB SWAP1 REVERT JUMPDEST JUMP JUMPDEST PUSH2 0x11DC DUP4 DUP5 PUSH20 0xFFFFFFFFFFFFFFFFFFFFFFFFFFFFFFFFFFFFFFFF AND PUSH4 0xA9059CBB DUP6 DUP6 PUSH1 0x40 MLOAD PUSH1 0x24 ADD PUSH2 0x1195 SWAP3 SWAP2 SWAP1 PUSH2 0x2C77 JUMP JUMPDEST PUSH1 0x40 MLOAD PUSH1 0x20 DUP2 DUP4 SUB SUB DUP2 MSTORE SWAP1 PUSH1 0x40 MSTORE SWAP2 POP PUSH1 0xE0 SHL PUSH1 0x20 DUP3 ADD DUP1 MLOAD PUSH28 0xFFFFFFFFFFFFFFFFFFFFFFFFFFFFFFFFFFFFFFFFFFFFFFFFFFFFFFFF DUP4 DUP2 DUP4 AND OR DUP4 MSTORE POP POP POP POP PUSH2 0x1C98 JUMP JUMPDEST POP POP POP JUMP JUMPDEST PUSH0 PUSH0 PUSH0 SWAP1 POP PUSH0 PUSH0 SWAP1 POP JUMPDEST DUP5 DUP5 SWAP1 POP DUP2 LT ISZERO PUSH2 0x1243 JUMPI PUSH2 0x1229 DUP7 DUP7 DUP7 DUP5 DUP2 DUP2 LT PUSH2 0x120D JUMPI PUSH2 0x120C PUSH2 0x2547 JUMP JUMPDEST JUMPDEST SWAP1 POP PUSH1 0x40 MUL ADD PUSH0 ADD PUSH1 0x20 DUP2 ADD SWAP1 PUSH2 0x1224 SWAP2 SWAP1 PUSH2 0x1D9E JUMP JUMPDEST PUSH2 0x124F JUMP JUMPDEST DUP3 PUSH2 0x1234 SWAP2 SWAP1 PUSH2 0x2A9E JUMP JUMPDEST SWAP2 POP DUP1 DUP1 PUSH1 0x1 ADD SWAP2 POP POP PUSH2 0x11EB JUMP JUMPDEST POP DUP1 SWAP2 POP POP SWAP4 SWAP3 POP POP POP JUMP JUMPDEST PUSH0 PUSH0 DUP3 PUSH20 0xFFFFFFFFFFFFFFFFFFFFFFFFFFFFFFFFFFFFFFFF AND PUSH4 0x70A08231 DUP6 PUSH1 0x40 MLOAD DUP3 PUSH4 0xFFFFFFFF AND PUSH1 0xE0 SHL DUP2 MSTORE PUSH1 0x4 ADD PUSH2 0x128A SWAP2 SWAP1 PUSH2 0x1E4C JUMP JUMPDEST PUSH1 0x20 PUSH1 0x40 MLOAD DUP1 DUP4 SUB DUP2 DUP7 GAS STATICCALL ISZERO DUP1 ISZERO PUSH2 0x12A5 JUMPI RETURNDATASIZE PUSH0 PUSH0 RETURNDATACOPY RETURNDATASIZE PUSH0 REVERT JUMPDEST POP POP POP POP PUSH1 0x40 MLOAD RETURNDATASIZE PUSH1 0x1F NOT PUSH1 0x1F DUP3 ADD AND DUP3 ADD DUP1 PUSH1 0x40 MSTORE POP DUP2 ADD SWAP1 PUSH2 0x12C9 SWAP2 SWAP1 PUSH2 0x251C JUMP JUMPDEST SWAP1 POP PUSH0 DUP2 SUB PUSH2 0x12DB JUMPI PUSH0 SWAP2 POP POP PUSH2 0x1383 JUMP JUMPDEST PUSH0 PUSH2 0x12E5 DUP5 PUSH2 0x1389 JUMP JUMPDEST SWAP1 POP PUSH0 DUP5 PUSH20 0xFFFFFFFFFFFFFFFFFFFFFFFFFFFFFFFFFFFFFFFF AND PUSH4 0x313CE567 PUSH1 0x40 MLOAD DUP2 PUSH4 0xFFFFFFFF AND PUSH1 0xE0 SHL DUP2 MSTORE PUSH1 0x4 ADD PUSH1 0x20 PUSH1 0x40 MLOAD DUP1 DUP4 SUB DUP2 DUP7 GAS STATICCALL ISZERO DUP1 ISZERO PUSH2 0x1331 JUMPI RETURNDATASIZE PUSH0 PUSH0 RETURNDATACOPY RETURNDATASIZE PUSH0 REVERT JUMPDEST POP POP POP POP PUSH1 0x40 MLOAD RETURNDATASIZE PUSH1 0x1F NOT PUSH1 0x1F DUP3 ADD AND DUP3 ADD DUP1 PUSH1 0x40 MSTORE POP DUP2 ADD SWAP1 PUSH2 0x1355 SWAP2 SWAP1 PUSH2 0x2724 JUMP JUMPDEST PUSH1 0xFF AND SWAP1 POP DUP1 PUSH1 0xA PUSH2 0x1367 SWAP2 SWAP1 PUSH2 0x2C9E JUMP JUMPDEST DUP3 DUP5 PUSH2 0x1373 SWAP2 SWAP1 PUSH2 0x261D JUMP JUMPDEST PUSH2 0x137D SWAP2 SWAP1 PUSH2 0x268B JUMP JUMPDEST SWAP4 POP POP POP POP JUMPDEST SWAP3 SWAP2 POP POP JUMP JUMPDEST PUSH0 PUSH0 PUSH1 0x4 PUSH0 DUP5 PUSH20 0xFFFFFFFFFFFFFFFFFFFFFFFFFFFFFFFFFFFFFFFF AND PUSH20 0xFFFFFFFFFFFFFFFFFFFFFFFFFFFFFFFFFFFFFFFF AND DUP2 MSTORE PUSH1 0x20 ADD SWAP1 DUP2 MSTORE PUSH1 0x20 ADD PUSH0 KECCAK256 PUSH0 SWAP1 SLOAD SWAP1 PUSH2 0x100 EXP SWAP1 DIV PUSH8 0xFFFFFFFFFFFFFFFF AND SWAP1 POP PUSH0 DUP2 PUSH8 0xFFFFFFFFFFFFFFFF AND SUB PUSH2 0x142A JUMPI PUSH1 0x40 MLOAD PUSH32 0x8C379A000000000000000000000000000000000000000000000000000000000 DUP2 MSTORE PUSH1 0x4 ADD PUSH2 0x1421 SWAP1 PUSH2 0x2D58 JUMP JUMPDEST PUSH1 0x40 MLOAD DUP1 SWAP2 SUB SWAP1 REVERT JUMPDEST PUSH0 PUSH0 PUSH32 0x0 PUSH20 0xFFFFFFFFFFFFFFFFFFFFFFFFFFFFFFFFFFFFFFFF AND PUSH4 0x98F93A96 DUP5 PUSH1 0x40 MLOAD DUP3 PUSH4 0xFFFFFFFF AND PUSH1 0xE0 SHL DUP2 MSTORE PUSH1 0x4 ADD PUSH2 0x1485 SWAP2 SWAP1 PUSH2 0x2153 JUMP JUMPDEST PUSH1 0x40 DUP1 MLOAD DUP1 DUP4 SUB DUP2 DUP7 GAS STATICCALL ISZERO DUP1 ISZERO PUSH2 0x149F JUMPI RETURNDATASIZE PUSH0 PUSH0 RETURNDATACOPY RETURNDATASIZE PUSH0 REVERT JUMPDEST POP POP POP POP PUSH1 0x40 MLOAD RETURNDATASIZE PUSH1 0x1F NOT PUSH1 0x1F DUP3 ADD AND DUP3 ADD DUP1 PUSH1 0x40 MSTORE POP DUP2 ADD SWAP1 PUSH2 0x14C3 SWAP2 SWAP1 PUSH2 0x2DDE JUMP JUMPDEST SWAP2 POP SWAP2 POP DUP1 PUSH2 0x1507 JUMPI PUSH1 0x40 MLOAD PUSH32 0x8C379A000000000000000000000000000000000000000000000000000000000 DUP2 MSTORE PUSH1 0x4 ADD PUSH2 0x14FE SWAP1 PUSH2 0x2E66 JUMP JUMPDEST PUSH1 0x40 MLOAD DUP1 SWAP2 SUB SWAP1 REVERT JUMPDEST PUSH0 PUSH1 0x80 DUP4 SWAP1 SHL PUSH1 0x80 SHR PUSH16 0xFFFFFFFFFFFFFFFFFFFFFFFFFFFFFFFF AND SWAP1 POP PUSH0 PUSH1 0x78 DUP5 SWAP1 SHL PUSH1 0xF8 SHR PUSH1 0xFF AND SWAP1 POP PUSH1 0x12 DUP2 LT ISZERO PUSH2 0x156B JUMPI DUP1 PUSH1 0x12 PUSH2 0x1548 SWAP2 SWAP1 PUSH2 0x26BB JUMP JUMPDEST PUSH1 0xA PUSH2 0x1554 SWAP2 SWAP1 PUSH2 0x2C9E JUMP JUMPDEST DUP3 PUSH2 0x155F SWAP2 SWAP1 PUSH2 0x261D JUMP JUMPDEST SWAP6 POP POP POP POP POP POP PUSH2 0x15AD JUMP JUMPDEST PUSH1 0x12 DUP2 GT ISZERO PUSH2 0x15A4 JUMPI PUSH1 0x12 DUP2 PUSH2 0x1581 SWAP2 SWAP1 PUSH2 0x26BB JUMP JUMPDEST PUSH1 0xA PUSH2 0x158D SWAP2 SWAP1 PUSH2 0x2C9E JUMP JUMPDEST DUP3 PUSH2 0x1598 SWAP2 SWAP1 PUSH2 0x268B JUMP JUMPDEST SWAP6 POP POP POP POP POP POP PUSH2 0x15AD JUMP JUMPDEST DUP2 SWAP6 POP POP POP POP POP POP JUMPDEST SWAP2 SWAP1 POP JUMP JUMPDEST PUSH1 0x2 PUSH1 0x1 SLOAD SUB PUSH2 0x15F7 JUMPI PUSH1 0x40 MLOAD PUSH32 0x8C379A000000000000000000000000000000000000000000000000000000000 DUP2 MSTORE PUSH1 0x4 ADD PUSH2 0x15EE SWAP1 PUSH2 0x2ECE JUMP JUMPDEST PUSH1 0x40 MLOAD DUP1 SWAP2 SUB SWAP1 REVERT JUMPDEST PUSH1 0x2 PUSH1 0x1 DUP2 SWAP1 SSTORE POP JUMP JUMPDEST PUSH0 PUSH0 SWAP1 POP JUMPDEST DUP4 MLOAD DUP2 LT ISZERO PUSH2 0x1714 JUMPI PUSH0 DUP5 DUP3 DUP2 MLOAD DUP2 LT PUSH2 0x1623 JUMPI PUSH2 0x1622 PUSH2 0x2547 JUMP JUMPDEST JUMPDEST PUSH1 0x20 MUL PUSH1 0x20 ADD ADD MLOAD GT ISZERO PUSH2 0x1707 JUMPI PUSH0 DUP7 DUP7 DUP4 DUP2 DUP2 LT PUSH2 0x1645 JUMPI PUSH2 0x1644 PUSH2 0x2547 JUMP JUMPDEST JUMPDEST SWAP1 POP PUSH1 0x40 MUL ADD PUSH0 ADD PUSH1 0x20 DUP2 ADD SWAP1 PUSH2 0x165C SWAP2 SWAP1 PUSH2 0x1D9E JUMP JUMPDEST SWAP1 POP PUSH2 0x16A5 DUP9 ADDRESS DUP8 DUP6 DUP2 MLOAD DUP2 LT PUSH2 0x1676 JUMPI PUSH2 0x1675 PUSH2 0x2547 JUMP JUMPDEST JUMPDEST PUSH1 0x20 MUL PUSH1 0x20 ADD ADD MLOAD DUP5 PUSH20 0xFFFFFFFFFFFFFFFFFFFFFFFFFFFFFFFFFFFFFFFF AND PUSH2 0x19DC SWAP1 SWAP4 SWAP3 SWAP2 SWAP1 PUSH4 0xFFFFFFFF AND JUMP JUMPDEST PUSH2 0x1705 DUP2 PUSH32 0x0 DUP8 DUP6 DUP2 MLOAD DUP2 LT PUSH2 0x16DD JUMPI PUSH2 0x16DC PUSH2 0x2547 JUMP JUMPDEST JUMPDEST PUSH1 0x20 MUL PUSH1 0x20 ADD ADD MLOAD DUP8 DUP8 DUP8 DUP2 DUP2 LT PUSH2 0x16F8 JUMPI PUSH2 0x16F7 PUSH2 0x2547 JUMP JUMPDEST JUMPDEST SWAP1 POP PUSH1 0x20 MUL ADD CALLDATALOAD ADDRESS PUSH2 0x1A5E JUMP JUMPDEST POP JUMPDEST DUP1 DUP1 PUSH1 0x1 ADD SWAP2 POP POP PUSH2 0x1606 JUMP JUMPDEST POP POP POP POP POP POP POP JUMP JUMPDEST PUSH0 PUSH32 0x0 PUSH20 0xFFFFFFFFFFFFFFFFFFFFFFFFFFFFFFFFFFFFFFFF AND PUSH4 0x70A08231 ADDRESS PUSH1 0x40 MLOAD DUP3 PUSH4 0xFFFFFFFF AND PUSH1 0xE0 SHL DUP2 MSTORE PUSH1 0x4 ADD PUSH2 0x1777 SWAP2 SWAP1 PUSH2 0x1E4C JUMP JUMPDEST PUSH1 0x20 PUSH1 0x40 MLOAD DUP1 DUP4 SUB DUP2 DUP7 GAS STATICCALL ISZERO DUP1 ISZERO PUSH2 0x1792 JUMPI RETURNDATASIZE PUSH0 PUSH0 RETURNDATACOPY RETURNDATASIZE PUSH0 REVERT JUMPDEST POP POP POP POP PUSH1 0x40 MLOAD RETURNDATASIZE PUSH1 0x1F NOT PUSH1 0x1F DUP3 ADD AND DUP3 ADD DUP1 PUSH1 0x40 MSTORE POP DUP2 ADD SWAP1 PUSH2 0x17B6 SWAP2 SWAP1 PUSH2 0x251C JUMP JUMPDEST SWAP1 POP PUSH0 DUP2 SUB PUSH2 0x17C5 JUMPI POP PUSH2 0x190A JUMP JUMPDEST PUSH0 PUSH0 SWAP1 POP PUSH0 PUSH0 SWAP1 POP JUMPDEST DUP6 MLOAD DUP2 LT ISZERO PUSH2 0x180C JUMPI DUP6 DUP2 DUP2 MLOAD DUP2 LT PUSH2 0x17EA JUMPI PUSH2 0x17E9 PUSH2 0x2547 JUMP JUMPDEST JUMPDEST PUSH1 0x20 MUL PUSH1 0x20 ADD ADD MLOAD DUP3 PUSH2 0x17FD SWAP2 SWAP1 PUSH2 0x2A9E JUMP JUMPDEST SWAP2 POP DUP1 DUP1 PUSH1 0x1 ADD SWAP2 POP POP PUSH2 0x17CE JUMP JUMPDEST POP PUSH0 DUP2 SUB PUSH2 0x181B JUMPI POP POP PUSH2 0x190A JUMP JUMPDEST PUSH0 PUSH0 SWAP1 POP JUMPDEST DUP6 MLOAD DUP2 LT ISZERO PUSH2 0x1906 JUMPI PUSH0 DUP7 DUP3 DUP2 MLOAD DUP2 LT PUSH2 0x183D JUMPI PUSH2 0x183C PUSH2 0x2547 JUMP JUMPDEST JUMPDEST PUSH1 0x20 MUL PUSH1 0x20 ADD ADD MLOAD GT ISZERO PUSH2 0x18F9 JUMPI PUSH0 DUP3 DUP8 DUP4 DUP2 MLOAD DUP2 LT PUSH2 0x1860 JUMPI PUSH2 0x185F PUSH2 0x2547 JUMP JUMPDEST JUMPDEST PUSH1 0x20 MUL PUSH1 0x20 ADD ADD MLOAD DUP6 PUSH2 0x1873 SWAP2 SWAP1 PUSH2 0x261D JUMP JUMPDEST PUSH2 0x187D SWAP2 SWAP1 PUSH2 0x268B JUMP JUMPDEST SWAP1 POP PUSH0 DUP2 GT ISZERO PUSH2 0x18F7 JUMPI PUSH2 0x18F6 PUSH32 0x0 DUP11 DUP11 DUP6 DUP2 DUP2 LT PUSH2 0x18BE JUMPI PUSH2 0x18BD PUSH2 0x2547 JUMP JUMPDEST JUMPDEST SWAP1 POP PUSH1 0x40 MUL ADD PUSH0 ADD PUSH1 0x20 DUP2 ADD SWAP1 PUSH2 0x18D5 SWAP2 SWAP1 PUSH2 0x1D9E JUMP JUMPDEST DUP4 DUP10 DUP10 DUP8 DUP2 DUP2 LT PUSH2 0x18E9 JUMPI PUSH2 0x18E8 PUSH2 0x2547 JUMP JUMPDEST JUMPDEST SWAP1 POP PUSH1 0x20 MUL ADD CALLDATALOAD DUP15 PUSH2 0x1A5E JUMP JUMPDEST JUMPDEST POP JUMPDEST DUP1 DUP1 PUSH1 0x1 ADD SWAP2 POP POP PUSH2 0x1820 JUMP JUMPDEST POP POP POP JUMPDEST POP POP POP POP POP POP JUMP JUMPDEST PUSH1 0x1 DUP1 DUP2 SWAP1 SSTORE POP JUMP JUMPDEST PUSH0 PUSH0 PUSH0 SWAP1 SLOAD SWAP1 PUSH2 0x100 EXP SWAP1 DIV PUSH20 0xFFFFFFFFFFFFFFFFFFFFFFFFFFFFFFFFFFFFFFFF AND SWAP1 POP DUP2 PUSH0 PUSH0 PUSH2 0x100 EXP DUP2 SLOAD DUP2 PUSH20 0xFFFFFFFFFFFFFFFFFFFFFFFFFFFFFFFFFFFFFFFF MUL NOT AND SWAP1 DUP4 PUSH20 0xFFFFFFFFFFFFFFFFFFFFFFFFFFFFFFFFFFFFFFFF AND MUL OR SWAP1 SSTORE POP DUP2 PUSH20 0xFFFFFFFFFFFFFFFFFFFFFFFFFFFFFFFFFFFFFFFF AND DUP2 PUSH20 0xFFFFFFFFFFFFFFFFFFFFFFFFFFFFFFFFFFFFFFFF AND PUSH32 0x8BE0079C531659141344CD1FD0A4F28419497F9722A3DAAFE3B4186F6B6457E0 PUSH1 0x40 MLOAD PUSH1 0x40 MLOAD DUP1 SWAP2 SUB SWAP1 LOG3 POP POP JUMP JUMPDEST PUSH2 0x1A58 DUP5 DUP6 PUSH20 0xFFFFFFFFFFFFFFFFFFFFFFFFFFFFFFFFFFFFFFFF AND PUSH4 0x23B872DD DUP7 DUP7 DUP7 PUSH1 0x40 MLOAD PUSH1 0x24 ADD PUSH2 0x1A11 SWAP4 SWAP3 SWAP2 SWAP1 PUSH2 0x2EEC JUMP JUMPDEST PUSH1 0x40 MLOAD PUSH1 0x20 DUP2 DUP4 SUB SUB DUP2 MSTORE SWAP1 PUSH1 0x40 MSTORE SWAP2 POP PUSH1 0xE0 SHL PUSH1 0x20 DUP3 ADD DUP1 MLOAD PUSH28 0xFFFFFFFFFFFFFFFFFFFFFFFFFFFFFFFFFFFFFFFFFFFFFFFFFFFFFFFF DUP4 DUP2 DUP4 AND OR DUP4 MSTORE POP POP POP POP PUSH2 0x1C98 JUMP JUMPDEST POP POP POP POP JUMP JUMPDEST DUP5 PUSH20 0xFFFFFFFFFFFFFFFFFFFFFFFFFFFFFFFFFFFFFFFF AND PUSH4 0x95EA7B3 PUSH32 0x0 DUP6 PUSH1 0x40 MLOAD DUP4 PUSH4 0xFFFFFFFF AND PUSH1 0xE0 SHL DUP2 MSTORE PUSH1 0x4 ADD PUSH2 0x1AB9 SWAP3 SWAP2 SWAP1 PUSH2 0x2C77 JUMP JUMPDEST PUSH1 0x20 PUSH1 0x40 MLOAD DUP1 DUP4 SUB DUP2 PUSH0 DUP8 GAS CALL ISZERO DUP1 ISZERO PUSH2 0x1AD5 JUMPI RETURNDATASIZE PUSH0 PUSH0 RETURNDATACOPY RETURNDATASIZE PUSH0 REVERT JUMPDEST POP POP POP POP PUSH1 0x40 MLOAD RETURNDATASIZE PUSH1 0x1F NOT PUSH1 0x1F DUP3 ADD AND DUP3 ADD DUP1 PUSH1 0x40 MSTORE POP DUP2 ADD SWAP1 PUSH2 0x1AF9 SWAP2 SWAP1 PUSH2 0x2F21 JUMP JUMPDEST POP PUSH0 PUSH1 0x2 PUSH8 0xFFFFFFFFFFFFFFFF DUP2 GT ISZERO PUSH2 0x1B16 JUMPI PUSH2 0x1B15 PUSH2 0x2274 JUMP JUMPDEST JUMPDEST PUSH1 0x40 MLOAD SWAP1 DUP1 DUP3 MSTORE DUP1 PUSH1 0x20 MUL PUSH1 0x20 ADD DUP3 ADD PUSH1 0x40 MSTORE DUP1 ISZERO PUSH2 0x1B44 JUMPI DUP2 PUSH1 0x20 ADD PUSH1 0x20 DUP3 MUL DUP1 CALLDATASIZE DUP4 CALLDATACOPY DUP1 DUP3 ADD SWAP2 POP POP SWAP1 POP JUMPDEST POP SWAP1 POP DUP6 DUP2 PUSH0 DUP2 MLOAD DUP2 LT PUSH2 0x1B5B JUMPI PUSH2 0x1B5A PUSH2 0x2547 JUMP JUMPDEST JUMPDEST PUSH1 0x20 MUL PUSH1 0x20 ADD ADD SWAP1 PUSH20 0xFFFFFFFFFFFFFFFFFFFFFFFFFFFFFFFFFFFFFFFF AND SWAP1 DUP2 PUSH20 0xFFFFFFFFFFFFFFFFFFFFFFFFFFFFFFFFFFFFFFFF AND DUP2 MSTORE POP POP DUP5 DUP2 PUSH1 0x1 DUP2 MLOAD DUP2 LT PUSH2 0x1BAA JUMPI PUSH2 0x1BA9 PUSH2 0x2547 JUMP JUMPDEST JUMPDEST PUSH1 0x20 MUL PUSH1 0x20 ADD ADD SWAP1 PUSH20 0xFFFFFFFFFFFFFFFFFFFFFFFFFFFFFFFFFFFFFFFF AND SWAP1 DUP2 PUSH20 0xFFFFFFFFFFFFFFFFFFFFFFFFFFFFFFFFFFFFFFFF AND DUP2 MSTORE POP POP PUSH32 0x0 PUSH20 0xFFFFFFFFFFFFFFFFFFFFFFFFFFFFFFFFFFFFFFFF AND PUSH4 0x38ED1739 DUP6 DUP6 DUP5 DUP7 TIMESTAMP PUSH1 0x40 MLOAD DUP7 PUSH4 0xFFFFFFFF AND PUSH1 0xE0 SHL DUP2 MSTORE PUSH1 0x4 ADD PUSH2 0x1C45 SWAP6 SWAP5 SWAP4 SWAP3 SWAP2 SWAP1 PUSH2 0x3003 JUMP JUMPDEST PUSH0 PUSH1 0x40 MLOAD DUP1 DUP4 SUB DUP2 PUSH0 DUP8 GAS CALL ISZERO DUP1 ISZERO PUSH2 0x1C60 JUMPI RETURNDATASIZE PUSH0 PUSH0 RETURNDATACOPY RETURNDATASIZE PUSH0 REVERT JUMPDEST POP POP POP POP PUSH1 0x40 MLOAD RETURNDATASIZE PUSH0 DUP3 RETURNDATACOPY RETURNDATASIZE PUSH1 0x1F NOT PUSH1 0x1F DUP3 ADD AND DUP3 ADD DUP1 PUSH1 0x40 MSTORE POP DUP2 ADD SWAP1 PUSH2 0x1C88 SWAP2 SWAP1 PUSH2 0x311B JUMP JUMPDEST POP POP POP POP POP POP POP JUMP JUMPDEST PUSH0 CALLER SWAP1 POP SWAP1 JUMP JUMPDEST PUSH0 PUSH0 PUSH1 0x20 PUSH0 DUP5 MLOAD PUSH1 0x20 DUP7 ADD PUSH0 DUP9 GAS CALL DUP1 PUSH2 0x1CB7 JUMPI PUSH1 0x40 MLOAD RETURNDATASIZE PUSH0 DUP3 RETURNDATACOPY RETURNDATASIZE DUP2 REVERT JUMPDEST RETURNDATASIZE SWAP3 POP PUSH0 MLOAD SWAP2 POP POP PUSH0 DUP3 EQ PUSH2 0x1CD0 JUMPI PUSH1 0x1 DUP2 EQ ISZERO PUSH2 0x1CEB JUMP JUMPDEST PUSH0 DUP5 PUSH20 0xFFFFFFFFFFFFFFFFFFFFFFFFFFFFFFFFFFFFFFFF AND EXTCODESIZE EQ JUMPDEST ISZERO PUSH2 0x1D2D JUMPI DUP4 PUSH1 0x40 MLOAD PUSH32 0x5274AFE700000000000000000000000000000000000000000000000000000000 DUP2 MSTORE PUSH1 0x4 ADD PUSH2 0x1D24 SWAP2 SWAP1 PUSH2 0x1E4C JUMP JUMPDEST PUSH1 0x40 MLOAD DUP1 SWAP2 SUB SWAP1 REVERT JUMPDEST POP POP POP POP JUMP JUMPDEST PUSH0 PUSH1 0x40 MLOAD SWAP1 POP SWAP1 JUMP JUMPDEST PUSH0 PUSH0 REVERT JUMPDEST PUSH0 PUSH0 REVERT JUMPDEST PUSH0 PUSH20 0xFFFFFFFFFFFFFFFFFFFFFFFFFFFFFFFFFFFFFFFF DUP3 AND SWAP1 POP SWAP2 SWAP1 POP JUMP JUMPDEST PUSH0 PUSH2 0x1D6D DUP3 PUSH2 0x1D44 JUMP JUMPDEST SWAP1 POP SWAP2 SWAP1 POP JUMP JUMPDEST PUSH2 0x1D7D DUP2 PUSH2 0x1D63 JUMP JUMPDEST DUP2 EQ PUSH2 0x1D87 JUMPI PUSH0 PUSH0 REVERT JUMPDEST POP JUMP JUMPDEST PUSH0 DUP2 CALLDATALOAD SWAP1 POP PUSH2 0x1D98 DUP2 PUSH2 0x1D74 JUMP JUMPDEST SWAP3 SWAP2 POP POP JUMP JUMPDEST PUSH0 PUSH1 0x20 DUP3 DUP5 SUB SLT ISZERO PUSH2 0x1DB3 JUMPI PUSH2 0x1DB2 PUSH2 0x1D3C JUMP JUMPDEST JUMPDEST PUSH0 PUSH2 0x1DC0 DUP5 DUP3 DUP6 ADD PUSH2 0x1D8A JUMP JUMPDEST SWAP2 POP POP SWAP3 SWAP2 POP POP JUMP JUMPDEST PUSH0 DUP2 SWAP1 POP SWAP2 SWAP1 POP JUMP JUMPDEST PUSH0 PUSH2 0x1DEC PUSH2 0x1DE7 PUSH2 0x1DE2 DUP5 PUSH2 0x1D44 JUMP JUMPDEST PUSH2 0x1DC9 JUMP JUMPDEST PUSH2 0x1D44 JUMP JUMPDEST SWAP1 POP SWAP2 SWAP1 POP JUMP JUMPDEST PUSH0 PUSH2 0x1DFD DUP3 PUSH2 0x1DD2 JUMP JUMPDEST SWAP1 POP SWAP2 SWAP1 POP JUMP JUMPDEST PUSH0 PUSH2 0x1E0E DUP3 PUSH2 0x1DF3 JUMP JUMPDEST SWAP1 POP SWAP2 SWAP1 POP JUMP JUMPDEST PUSH2 0x1E1E DUP2 PUSH2 0x1E04 JUMP JUMPDEST DUP3 MSTORE POP POP JUMP JUMPDEST PUSH0 PUSH1 0x20 DUP3 ADD SWAP1 POP PUSH2 0x1E37 PUSH0 DUP4 ADD DUP5 PUSH2 0x1E15 JUMP JUMPDEST SWAP3 SWAP2 POP POP JUMP JUMPDEST PUSH2 0x1E46 DUP2 PUSH2 0x1D63 JUMP JUMPDEST DUP3 MSTORE POP POP JUMP JUMPDEST PUSH0 PUSH1 0x20 DUP3 ADD SWAP1 POP PUSH2 0x1E5F PUSH0 DUP4 ADD DUP5 PUSH2 0x1E3D JUMP JUMPDEST SWAP3 SWAP2 POP POP JUMP JUMPDEST PUSH0 PUSH0 REVERT JUMPDEST PUSH0 PUSH0 REVERT JUMPDEST PUSH0 PUSH0 REVERT JUMPDEST PUSH0 PUSH0 DUP4 PUSH1 0x1F DUP5 ADD SLT PUSH2 0x1E86 JUMPI PUSH2 0x1E85 PUSH2 0x1E65 JUMP JUMPDEST JUMPDEST DUP3 CALLDATALOAD SWAP1 POP PUSH8 0xFFFFFFFFFFFFFFFF DUP2 GT ISZERO PUSH2 0x1EA3 JUMPI PUSH2 0x1EA2 PUSH2 0x1E69 JUMP JUMPDEST JUMPDEST PUSH1 0x20 DUP4 ADD SWAP2 POP DUP4 PUSH1 0x40 DUP3 MUL DUP4 ADD GT ISZERO PUSH2 0x1EBF JUMPI PUSH2 0x1EBE PUSH2 0x1E6D JUMP JUMPDEST JUMPDEST SWAP3 POP SWAP3 SWAP1 POP JUMP JUMPDEST PUSH0 PUSH0 PUSH0 PUSH1 0x40 DUP5 DUP7 SUB SLT ISZERO PUSH2 0x1EDD JUMPI PUSH2 0x1EDC PUSH2 0x1D3C JUMP JUMPDEST JUMPDEST PUSH0 PUSH2 0x1EEA DUP7 DUP3 DUP8 ADD PUSH2 0x1D8A JUMP JUMPDEST SWAP4 POP POP PUSH1 0x20 DUP5 ADD CALLDATALOAD PUSH8 0xFFFFFFFFFFFFFFFF DUP2 GT ISZERO PUSH2 0x1F0B JUMPI PUSH2 0x1F0A PUSH2 0x1D40 JUMP JUMPDEST JUMPDEST PUSH2 0x1F17 DUP7 DUP3 DUP8 ADD PUSH2 0x1E71 JUMP JUMPDEST SWAP3 POP SWAP3 POP POP SWAP3 POP SWAP3 POP SWAP3 JUMP JUMPDEST PUSH0 DUP2 MLOAD SWAP1 POP SWAP2 SWAP1 POP JUMP JUMPDEST PUSH0 DUP3 DUP3 MSTORE PUSH1 0x20 DUP3 ADD SWAP1 POP SWAP3 SWAP2 POP POP JUMP JUMPDEST PUSH0 DUP2 SWAP1 POP PUSH1 0x20 DUP3 ADD SWAP1 POP SWAP2 SWAP1 POP JUMP JUMPDEST PUSH0 DUP2 SWAP1 POP SWAP2 SWAP1 POP JUMP JUMPDEST PUSH2 0x1F5E DUP2 PUSH2 0x1F4C JUMP JUMPDEST DUP3 MSTORE POP POP JUMP JUMPDEST PUSH0 PUSH2 0x1F6F DUP4 DUP4 PUSH2 0x1F55 JUMP JUMPDEST PUSH1 0x20 DUP4 ADD SWAP1 POP SWAP3 SWAP2 POP POP JUMP JUMPDEST PUSH0 PUSH1 0x20 DUP3 ADD SWAP1 POP SWAP2 SWAP1 POP JUMP JUMPDEST PUSH0 PUSH2 0x1F91 DUP3 PUSH2 0x1F23 JUMP JUMPDEST PUSH2 0x1F9B DUP2 DUP6 PUSH2 0x1F2D JUMP JUMPDEST SWAP4 POP PUSH2 0x1FA6 DUP4 PUSH2 0x1F3D JUMP JUMPDEST DUP1 PUSH0 JUMPDEST DUP4 DUP2 LT ISZERO PUSH2 0x1FD6 JUMPI DUP2 MLOAD PUSH2 0x1FBD DUP9 DUP3 PUSH2 0x1F64 JUMP JUMPDEST SWAP8 POP PUSH2 0x1FC8 DUP4 PUSH2 0x1F7B JUMP JUMPDEST SWAP3 POP POP PUSH1 0x1 DUP2 ADD SWAP1 POP PUSH2 0x1FA9 JUMP JUMPDEST POP DUP6 SWAP4 POP POP POP POP SWAP3 SWAP2 POP POP JUMP JUMPDEST PUSH0 PUSH1 0x40 DUP3 ADD SWAP1 POP DUP2 DUP2 SUB PUSH0 DUP4 ADD MSTORE PUSH2 0x1FFB DUP2 DUP6 PUSH2 0x1F87 JUMP JUMPDEST SWAP1 POP DUP2 DUP2 SUB PUSH1 0x20 DUP4 ADD MSTORE PUSH2 0x200F DUP2 DUP5 PUSH2 0x1F87 JUMP JUMPDEST SWAP1 POP SWAP4 SWAP3 POP POP POP JUMP JUMPDEST PUSH0 PUSH0 DUP4 PUSH1 0x1F DUP5 ADD SLT PUSH2 0x202D JUMPI PUSH2 0x202C PUSH2 0x1E65 JUMP JUMPDEST JUMPDEST DUP3 CALLDATALOAD SWAP1 POP PUSH8 0xFFFFFFFFFFFFFFFF DUP2 GT ISZERO PUSH2 0x204A JUMPI PUSH2 0x2049 PUSH2 0x1E69 JUMP JUMPDEST JUMPDEST PUSH1 0x20 DUP4 ADD SWAP2 POP DUP4 PUSH1 0x20 DUP3 MUL DUP4 ADD GT ISZERO PUSH2 0x2066 JUMPI PUSH2 0x2065 PUSH2 0x1E6D JUMP JUMPDEST JUMPDEST SWAP3 POP SWAP3 SWAP1 POP JUMP JUMPDEST PUSH0 PUSH0 PUSH0 PUSH0 PUSH0 PUSH0 PUSH0 PUSH1 0x80 DUP9 DUP11 SUB SLT ISZERO PUSH2 0x2088 JUMPI PUSH2 0x2087 PUSH2 0x1D3C JUMP JUMPDEST JUMPDEST PUSH0 PUSH2 0x2095 DUP11 DUP3 DUP12 ADD PUSH2 0x1D8A JUMP JUMPDEST SWAP8 POP POP PUSH1 0x20 DUP9 ADD CALLDATALOAD PUSH8 0xFFFFFFFFFFFFFFFF DUP2 GT ISZERO PUSH2 0x20B6 JUMPI PUSH2 0x20B5 PUSH2 0x1D40 JUMP JUMPDEST JUMPDEST PUSH2 0x20C2 DUP11 DUP3 DUP12 ADD PUSH2 0x1E71 JUMP JUMPDEST SWAP7 POP SWAP7 POP POP PUSH1 0x40 DUP9 ADD CALLDATALOAD PUSH8 0xFFFFFFFFFFFFFFFF DUP2 GT ISZERO PUSH2 0x20E5 JUMPI PUSH2 0x20E4 PUSH2 0x1D40 JUMP JUMPDEST JUMPDEST PUSH2 0x20F1 DUP11 DUP3 DUP12 ADD PUSH2 0x2018 JUMP JUMPDEST SWAP5 POP SWAP5 POP POP PUSH1 0x60 DUP9 ADD CALLDATALOAD PUSH8 0xFFFFFFFFFFFFFFFF DUP2 GT ISZERO PUSH2 0x2114 JUMPI PUSH2 0x2113 PUSH2 0x1D40 JUMP JUMPDEST JUMPDEST PUSH2 0x2120 DUP11 DUP3 DUP12 ADD PUSH2 0x2018 JUMP JUMPDEST SWAP3 POP SWAP3 POP POP SWAP3 SWAP6 SWAP9 SWAP2 SWAP5 SWAP8 POP SWAP3 SWAP6 POP JUMP JUMPDEST PUSH0 PUSH8 0xFFFFFFFFFFFFFFFF DUP3 AND SWAP1 POP SWAP2 SWAP1 POP JUMP JUMPDEST PUSH2 0x214D DUP2 PUSH2 0x2131 JUMP JUMPDEST DUP3 MSTORE POP POP JUMP JUMPDEST PUSH0 PUSH1 0x20 DUP3 ADD SWAP1 POP PUSH2 0x2166 PUSH0 DUP4 ADD DUP5 PUSH2 0x2144 JUMP JUMPDEST SWAP3 SWAP2 POP POP JUMP JUMPDEST PUSH0 PUSH2 0x2176 DUP3 PUSH2 0x1DF3 JUMP JUMPDEST SWAP1 POP SWAP2 SWAP1 POP JUMP JUMPDEST PUSH2 0x2186 DUP2 PUSH2 0x216C JUMP JUMPDEST DUP3 MSTORE POP POP JUMP JUMPDEST PUSH0 PUSH1 0x20 DUP3 ADD SWAP1 POP PUSH2 0x219F PUSH0 DUP4 ADD DUP5 PUSH2 0x217D JUMP JUMPDEST SWAP3 SWAP2 POP POP JUMP JUMPDEST PUSH2 0x21AE DUP2 PUSH2 0x1F4C JUMP JUMPDEST DUP2 EQ PUSH2 0x21B8 JUMPI PUSH0 PUSH0 REVERT JUMPDEST POP JUMP JUMPDEST PUSH0 DUP2 CALLDATALOAD SWAP1 POP PUSH2 0x21C9 DUP2 PUSH2 0x21A5 JUMP JUMPDEST SWAP3 SWAP2 POP POP JUMP JUMPDEST PUSH0 PUSH0 PUSH0 PUSH0 PUSH0 PUSH1 0x60 DUP7 DUP9 SUB SLT ISZERO PUSH2 0x21E8 JUMPI PUSH2 0x21E7 PUSH2 0x1D3C JUMP JUMPDEST JUMPDEST PUSH0 DUP7 ADD CALLDATALOAD PUSH8 0xFFFFFFFFFFFFFFFF DUP2 GT ISZERO PUSH2 0x2205 JUMPI PUSH2 0x2204 PUSH2 0x1D40 JUMP JUMPDEST JUMPDEST PUSH2 0x2211 DUP9 DUP3 DUP10 ADD PUSH2 0x1E71 JUMP JUMPDEST SWAP6 POP SWAP6 POP POP PUSH1 0x20 PUSH2 0x2224 DUP9 DUP3 DUP10 ADD PUSH2 0x21BB JUMP JUMPDEST SWAP4 POP POP PUSH1 0x40 DUP7 ADD CALLDATALOAD PUSH8 0xFFFFFFFFFFFFFFFF DUP2 GT ISZERO PUSH2 0x2245 JUMPI PUSH2 0x2244 PUSH2 0x1D40 JUMP JUMPDEST JUMPDEST PUSH2 0x2251 DUP9 DUP3 DUP10 ADD PUSH2 0x2018 JUMP JUMPDEST SWAP3 POP SWAP3 POP POP SWAP3 SWAP6 POP SWAP3 SWAP6 SWAP1 SWAP4 POP JUMP JUMPDEST PUSH0 PUSH0 REVERT JUMPDEST PUSH0 PUSH1 0x1F NOT PUSH1 0x1F DUP4 ADD AND SWAP1 POP SWAP2 SWAP1 POP JUMP JUMPDEST PUSH32 0x4E487B7100000000000000000000000000000000000000000000000000000000 PUSH0 MSTORE PUSH1 0x41 PUSH1 0x4 MSTORE PUSH1 0x24 PUSH0 REVERT JUMPDEST PUSH2 0x22AA DUP3 PUSH2 0x2264 JUMP JUMPDEST DUP2 ADD DUP2 DUP2 LT PUSH8 0xFFFFFFFFFFFFFFFF DUP3 GT OR ISZERO PUSH2 0x22C9 JUMPI PUSH2 0x22C8 PUSH2 0x2274 JUMP JUMPDEST JUMPDEST DUP1 PUSH1 0x40 MSTORE POP POP POP JUMP JUMPDEST PUSH0 PUSH2 0x22DB PUSH2 0x1D33 JUMP JUMPDEST SWAP1 POP PUSH2 0x22E7 DUP3 DUP3 PUSH2 0x22A1 JUMP JUMPDEST SWAP2 SWAP1 POP JUMP JUMPDEST PUSH0 PUSH8 0xFFFFFFFFFFFFFFFF DUP3 GT ISZERO PUSH2 0x2306 JUMPI PUSH2 0x2305 PUSH2 0x2274 JUMP JUMPDEST JUMPDEST PUSH2 0x230F DUP3 PUSH2 0x2264 JUMP JUMPDEST SWAP1 POP PUSH1 0x20 DUP2 ADD SWAP1 POP SWAP2 SWAP1 POP JUMP JUMPDEST DUP3 DUP2 DUP4 CALLDATACOPY PUSH0 DUP4 DUP4 ADD MSTORE POP POP POP JUMP JUMPDEST PUSH0 PUSH2 0x233C PUSH2 0x2337 DUP5 PUSH2 0x22EC JUMP JUMPDEST PUSH2 0x22D2 JUMP JUMPDEST SWAP1 POP DUP3 DUP2 MSTORE PUSH1 0x20 DUP2 ADD DUP5 DUP5 DUP5 ADD GT ISZERO PUSH2 0x2358 JUMPI PUSH2 0x2357 PUSH2 0x2260 JUMP JUMPDEST JUMPDEST PUSH2 0x2363 DUP5 DUP3 DUP6 PUSH2 0x231C JUMP JUMPDEST POP SWAP4 SWAP3 POP POP POP JUMP JUMPDEST PUSH0 DUP3 PUSH1 0x1F DUP4 ADD SLT PUSH2 0x237F JUMPI PUSH2 0x237E PUSH2 0x1E65 JUMP JUMPDEST JUMPDEST DUP2 CALLDATALOAD PUSH2 0x238F DUP5 DUP3 PUSH1 0x20 DUP7 ADD PUSH2 0x232A JUMP JUMPDEST SWAP2 POP POP SWAP3 SWAP2 POP POP JUMP JUMPDEST PUSH0 PUSH1 0x20 DUP3 DUP5 SUB SLT ISZERO PUSH2 0x23AD JUMPI PUSH2 0x23AC PUSH2 0x1D3C JUMP JUMPDEST JUMPDEST PUSH0 DUP3 ADD CALLDATALOAD PUSH8 0xFFFFFFFFFFFFFFFF DUP2 GT ISZERO PUSH2 0x23CA JUMPI PUSH2 0x23C9 PUSH2 0x1D40 JUMP JUMPDEST JUMPDEST PUSH2 0x23D6 DUP5 DUP3 DUP6 ADD PUSH2 0x236B JUMP JUMPDEST SWAP2 POP POP SWAP3 SWAP2 POP POP JUMP JUMPDEST PUSH0 PUSH2 0x23E9 DUP3 PUSH2 0x1DF3 JUMP JUMPDEST SWAP1 POP SWAP2 SWAP1 POP JUMP JUMPDEST PUSH2 0x23F9 DUP2 PUSH2 0x23DF JUMP JUMPDEST DUP3 MSTORE POP POP JUMP JUMPDEST PUSH0 PUSH1 0x20 DUP3 ADD SWAP1 POP PUSH2 0x2412 PUSH0 DUP4 ADD DUP5 PUSH2 0x23F0 JUMP JUMPDEST SWAP3 SWAP2 POP POP JUMP JUMPDEST PUSH0 PUSH0 DUP4 PUSH1 0x1F DUP5 ADD SLT PUSH2 0x242D JUMPI PUSH2 0x242C PUSH2 0x1E65 JUMP JUMPDEST JUMPDEST DUP3 CALLDATALOAD SWAP1 POP PUSH8 0xFFFFFFFFFFFFFFFF DUP2 GT ISZERO PUSH2 0x244A JUMPI PUSH2 0x2449 PUSH2 0x1E69 JUMP JUMPDEST JUMPDEST PUSH1 0x20 DUP4 ADD SWAP2 POP DUP4 PUSH1 0x1 DUP3 MUL DUP4 ADD GT ISZERO PUSH2 0x2466 JUMPI PUSH2 0x2465 PUSH2 0x1E6D JUMP JUMPDEST JUMPDEST SWAP3 POP SWAP3 SWAP1 POP JUMP JUMPDEST PUSH2 0x2476 DUP2 PUSH2 0x2131 JUMP JUMPDEST DUP2 EQ PUSH2 0x2480 JUMPI PUSH0 PUSH0 REVERT JUMPDEST POP JUMP JUMPDEST PUSH0 DUP2 CALLDATALOAD SWAP1 POP PUSH2 0x2491 DUP2 PUSH2 0x246D JUMP JUMPDEST SWAP3 SWAP2 POP POP JUMP JUMPDEST PUSH0 PUSH0 PUSH0 PUSH0 PUSH1 0x60 DUP6 DUP8 SUB SLT ISZERO PUSH2 0x24AF JUMPI PUSH2 0x24AE PUSH2 0x1D3C JUMP JUMPDEST JUMPDEST PUSH0 DUP6 ADD CALLDATALOAD PUSH8 0xFFFFFFFFFFFFFFFF DUP2 GT ISZERO PUSH2 0x24CC JUMPI PUSH2 0x24CB PUSH2 0x1D40 JUMP JUMPDEST JUMPDEST PUSH2 0x24D8 DUP8 DUP3 DUP9 ADD PUSH2 0x2418 JUMP JUMPDEST SWAP5 POP SWAP5 POP POP PUSH1 0x20 PUSH2 0x24EB DUP8 DUP3 DUP9 ADD PUSH2 0x1D8A JUMP JUMPDEST SWAP3 POP POP PUSH1 0x40 PUSH2 0x24FC DUP8 DUP3 DUP9 ADD PUSH2 0x2483 JUMP JUMPDEST SWAP2 POP POP SWAP3 SWAP6 SWAP2 SWAP5 POP SWAP3 POP JUMP JUMPDEST PUSH0 DUP2 MLOAD SWAP1 POP PUSH2 0x2516 DUP2 PUSH2 0x21A5 JUMP JUMPDEST SWAP3 SWAP2 POP POP JUMP JUMPDEST PUSH0 PUSH1 0x20 DUP3 DUP5 SUB SLT ISZERO PUSH2 0x2531 JUMPI PUSH2 0x2530 PUSH2 0x1D3C JUMP JUMPDEST JUMPDEST PUSH0 PUSH2 0x253E DUP5 DUP3 DUP6 ADD PUSH2 0x2508 JUMP JUMPDEST SWAP2 POP POP SWAP3 SWAP2 POP POP JUMP JUMPDEST PUSH32 0x4E487B7100000000000000000000000000000000000000000000000000000000 PUSH0 MSTORE PUSH1 0x32 PUSH1 0x4 MSTORE PUSH1 0x24 PUSH0 REVERT JUMPDEST PUSH0 PUSH0 REVERT JUMPDEST PUSH0 PUSH1 0x40 DUP3 DUP5 SUB SLT ISZERO PUSH2 0x258D JUMPI PUSH2 0x258C PUSH2 0x2574 JUMP JUMPDEST JUMPDEST PUSH2 0x2597 PUSH1 0x40 PUSH2 0x22D2 JUMP JUMPDEST SWAP1 POP PUSH0 PUSH2 0x25A6 DUP5 DUP3 DUP6 ADD PUSH2 0x1D8A JUMP JUMPDEST PUSH0 DUP4 ADD MSTORE POP PUSH1 0x20 PUSH2 0x25B9 DUP5 DUP3 DUP6 ADD PUSH2 0x21BB JUMP JUMPDEST PUSH1 0x20 DUP4 ADD MSTORE POP SWAP3 SWAP2 POP POP JUMP JUMPDEST PUSH0 PUSH1 0x40 DUP3 DUP5 SUB SLT ISZERO PUSH2 0x25DA JUMPI PUSH2 0x25D9 PUSH2 0x1D3C JUMP JUMPDEST JUMPDEST PUSH0 PUSH2 0x25E7 DUP5 DUP3 DUP6 ADD PUSH2 0x2578 JUMP JUMPDEST SWAP2 POP POP SWAP3 SWAP2 POP POP JUMP JUMPDEST PUSH32 0x4E487B7100000000000000000000000000000000000000000000000000000000 PUSH0 MSTORE PUSH1 0x11 PUSH1 0x4 MSTORE PUSH1 0x24 PUSH0 REVERT JUMPDEST PUSH0 PUSH2 0x2627 DUP3 PUSH2 0x1F4C JUMP JUMPDEST SWAP2 POP PUSH2 0x2632 DUP4 PUSH2 0x1F4C JUMP JUMPDEST SWAP3 POP DUP3 DUP3 MUL PUSH2 0x2640 DUP2 PUSH2 0x1F4C JUMP JUMPDEST SWAP2 POP DUP3 DUP3 DIV DUP5 EQ DUP4 ISZERO OR PUSH2 0x2657 JUMPI PUSH2 0x2656 PUSH2 0x25F0 JUMP JUMPDEST JUMPDEST POP SWAP3 SWAP2 POP POP JUMP JUMPDEST PUSH32 0x4E487B7100000000000000000000000000000000000000000000000000000000 PUSH0 MSTORE PUSH1 0x12 PUSH1 0x4 MSTORE PUSH1 0x24 PUSH0 REVERT JUMPDEST PUSH0 PUSH2 0x2695 DUP3 PUSH2 0x1F4C JUMP JUMPDEST SWAP2 POP PUSH2 0x26A0 DUP4 PUSH2 0x1F4C JUMP JUMPDEST SWAP3 POP DUP3 PUSH2 0x26B0 JUMPI PUSH2 0x26AF PUSH2 0x265E JUMP JUMPDEST JUMPDEST DUP3 DUP3 DIV SWAP1 POP SWAP3 SWAP2 POP POP JUMP JUMPDEST PUSH0 PUSH2 0x26C5 DUP3 PUSH2 0x1F4C JUMP JUMPDEST SWAP2 POP PUSH2 0x26D0 DUP4 PUSH2 0x1F4C JUMP JUMPDEST SWAP3 POP DUP3 DUP3 SUB SWAP1 POP DUP2 DUP2 GT ISZERO PUSH2 0x26E8 JUMPI PUSH2 0x26E7 PUSH2 0x25F0 JUMP JUMPDEST JUMPDEST SWAP3 SWAP2 POP POP JUMP JUMPDEST PUSH0 PUSH1 0xFF DUP3 AND SWAP1 POP SWAP2 SWAP1 POP JUMP JUMPDEST PUSH2 0x2703 DUP2 PUSH2 0x26EE JUMP JUMPDEST DUP2 EQ PUSH2 0x270D JUMPI PUSH0 PUSH0 REVERT JUMPDEST POP JUMP JUMPDEST PUSH0 DUP2 MLOAD SWAP1 POP PUSH2 0x271E DUP2 PUSH2 0x26FA JUMP JUMPDEST SWAP3 SWAP2 POP POP JUMP JUMPDEST PUSH0 PUSH1 0x20 DUP3 DUP5 SUB SLT ISZERO PUSH2 0x2739 JUMPI PUSH2 0x2738 PUSH2 0x1D3C JUMP JUMPDEST JUMPDEST PUSH0 PUSH2 0x2746 DUP5 DUP3 DUP6 ADD PUSH2 0x2710 JUMP JUMPDEST SWAP2 POP POP SWAP3 SWAP2 POP POP JUMP JUMPDEST PUSH0 DUP2 PUSH1 0x1 SHR SWAP1 POP SWAP2 SWAP1 POP JUMP JUMPDEST PUSH0 PUSH0 DUP3 SWAP2 POP DUP4 SWAP1 POP JUMPDEST PUSH1 0x1 DUP6 GT ISZERO PUSH2 0x27A4 JUMPI DUP1 DUP7 DIV DUP2 GT ISZERO PUSH2 0x2780 JUMPI PUSH2 0x277F PUSH2 0x25F0 JUMP JUMPDEST JUMPDEST PUSH1 0x1 DUP6 AND ISZERO PUSH2 0x278F JUMPI DUP1 DUP3 MUL SWAP2 POP JUMPDEST DUP1 DUP2 MUL SWAP1 POP PUSH2 0x279D DUP6 PUSH2 0x274F JUMP JUMPDEST SWAP5 POP PUSH2 0x2764 JUMP JUMPDEST SWAP5 POP SWAP5 SWAP3 POP POP POP JUMP JUMPDEST PUSH0 DUP3 PUSH2 0x27BC JUMPI PUSH1 0x1 SWAP1 POP PUSH2 0x2877 JUMP JUMPDEST DUP2 PUSH2 0x27C9 JUMPI PUSH0 SWAP1 POP PUSH2 0x2877 JUMP JUMPDEST DUP2 PUSH1 0x1 DUP2 EQ PUSH2 0x27DF JUMPI PUSH1 0x2 DUP2 EQ PUSH2 0x27E9 JUMPI PUSH2 0x2818 JUMP JUMPDEST PUSH1 0x1 SWAP2 POP POP PUSH2 0x2877 JUMP JUMPDEST PUSH1 0xFF DUP5 GT ISZERO PUSH2 0x27FB JUMPI PUSH2 0x27FA PUSH2 0x25F0 JUMP JUMPDEST JUMPDEST DUP4 PUSH1 0x2 EXP SWAP2 POP DUP5 DUP3 GT ISZERO PUSH2 0x2812 JUMPI PUSH2 0x2811 PUSH2 0x25F0 JUMP JUMPDEST JUMPDEST POP PUSH2 0x2877 JUMP JUMPDEST POP PUSH1 0x20 DUP4 LT PUSH2 0x133 DUP4 LT AND PUSH1 0x4E DUP5 LT PUSH1 0xB DUP5 LT AND OR ISZERO PUSH2 0x284D JUMPI DUP3 DUP3 EXP SWAP1 POP DUP4 DUP2 GT ISZERO PUSH2 0x2848 JUMPI PUSH2 0x2847 PUSH2 0x25F0 JUMP JUMPDEST JUMPDEST PUSH2 0x2877 JUMP JUMPDEST PUSH2 0x285A DUP5 DUP5 DUP5 PUSH1 0x1 PUSH2 0x275B JUMP JUMPDEST SWAP3 POP SWAP1 POP DUP2 DUP5 DIV DUP2 GT ISZERO PUSH2 0x2871 JUMPI PUSH2 0x2870 PUSH2 0x25F0 JUMP JUMPDEST JUMPDEST DUP2 DUP2 MUL SWAP1 POP JUMPDEST SWAP4 SWAP3 POP POP POP JUMP JUMPDEST PUSH0 PUSH2 0x2888 DUP3 PUSH2 0x1F4C JUMP JUMPDEST SWAP2 POP PUSH2 0x2893 DUP4 PUSH2 0x26EE JUMP JUMPDEST SWAP3 POP PUSH2 0x28C0 PUSH32 0xFFFFFFFFFFFFFFFFFFFFFFFFFFFFFFFFFFFFFFFFFFFFFFFFFFFFFFFFFFFFFFFF DUP5 DUP5 PUSH2 0x27AD JUMP JUMPDEST SWAP1 POP SWAP3 SWAP2 POP POP JUMP JUMPDEST PUSH0 DUP3 DUP3 MSTORE PUSH1 0x20 DUP3 ADD SWAP1 POP SWAP3 SWAP2 POP POP JUMP JUMPDEST PUSH32 0x4E6F7420617574686F72697A6564000000000000000000000000000000000000 PUSH0 DUP3 ADD MSTORE POP JUMP JUMPDEST PUSH0 PUSH2 0x290C PUSH1 0xE DUP4 PUSH2 0x28C8 JUMP JUMPDEST SWAP2 POP PUSH2 0x2917 DUP3 PUSH2 0x28D8 JUMP JUMPDEST PUSH1 0x20 DUP3 ADD SWAP1 POP SWAP2 SWAP1 POP JUMP JUMPDEST PUSH0 PUSH1 0x20 DUP3 ADD SWAP1 POP DUP2 DUP2 SUB PUSH0 DUP4 ADD MSTORE PUSH2 0x2939 DUP2 PUSH2 0x2900 JUMP JUMPDEST SWAP1 POP SWAP2 SWAP1 POP JUMP JUMPDEST PUSH32 0x496E707574206172726179206C656E677468206D69736D617463680000000000 PUSH0 DUP3 ADD MSTORE POP JUMP JUMPDEST PUSH0 PUSH2 0x2974 PUSH1 0x1B DUP4 PUSH2 0x28C8 JUMP JUMPDEST SWAP2 POP PUSH2 0x297F DUP3 PUSH2 0x2940 JUMP JUMPDEST PUSH1 0x20 DUP3 ADD SWAP1 POP SWAP2 SWAP1 POP JUMP JUMPDEST PUSH0 PUSH1 0x20 DUP3 ADD SWAP1 POP DUP2 DUP2 SUB PUSH0 DUP4 ADD MSTORE PUSH2 0x29A1 DUP2 PUSH2 0x2968 JUMP JUMPDEST SWAP1 POP SWAP2 SWAP1 POP JUMP JUMPDEST PUSH32 0x43616E6E6F7420726562616C616E6365207A65726F2D76616C756520706F7274 PUSH0 DUP3 ADD MSTORE PUSH32 0x666F6C696F000000000000000000000000000000000000000000000000000000 PUSH1 0x20 DUP3 ADD MSTORE POP JUMP JUMPDEST PUSH0 PUSH2 0x2A02 PUSH1 0x25 DUP4 PUSH2 0x28C8 JUMP JUMPDEST SWAP2 POP PUSH2 0x2A0D DUP3 PUSH2 0x29A8 JUMP JUMPDEST PUSH1 0x40 DUP3 ADD SWAP1 POP SWAP2 SWAP1 POP JUMP JUMPDEST PUSH0 PUSH1 0x20 DUP3 ADD SWAP1 POP DUP2 DUP2 SUB PUSH0 DUP4 ADD MSTORE PUSH2 0x2A2F DUP2 PUSH2 0x29F6 JUMP JUMPDEST SWAP1 POP SWAP2 SWAP1 POP JUMP JUMPDEST PUSH32 0x4361706974616C206D757374206265203E203000000000000000000000000000 PUSH0 DUP3 ADD MSTORE POP JUMP JUMPDEST PUSH0 PUSH2 0x2A6A PUSH1 0x13 DUP4 PUSH2 0x28C8 JUMP JUMPDEST SWAP2 POP PUSH2 0x2A75 DUP3 PUSH2 0x2A36 JUMP JUMPDEST PUSH1 0x20 DUP3 ADD SWAP1 POP SWAP2 SWAP1 POP JUMP JUMPDEST PUSH0 PUSH1 0x20 DUP3 ADD SWAP1 POP DUP2 DUP2 SUB PUSH0 DUP4 ADD MSTORE PUSH2 0x2A97 DUP2 PUSH2 0x2A5E JUMP JUMPDEST SWAP1 POP SWAP2 SWAP1 POP JUMP JUMPDEST PUSH0 PUSH2 0x2AA8 DUP3 PUSH2 0x1F4C JUMP JUMPDEST SWAP2 POP PUSH2 0x2AB3 DUP4 PUSH2 0x1F4C JUMP JUMPDEST SWAP3 POP DUP3 DUP3 ADD SWAP1 POP DUP1 DUP3 GT ISZERO PUSH2 0x2ACB JUMPI PUSH2 0x2ACA PUSH2 0x25F0 JUMP JUMPDEST JUMPDEST SWAP3 SWAP2 POP POP JUMP JUMPDEST PUSH32 0x50657263656E7461676573206D7573742073756D20746F203130302500000000 PUSH0 DUP3 ADD MSTORE POP JUMP JUMPDEST PUSH0 PUSH2 0x2B05 PUSH1 0x1C DUP4 PUSH2 0x28C8 JUMP JUMPDEST SWAP2 POP PUSH2 0x2B10 DUP3 PUSH2 0x2AD1 JUMP JUMPDEST PUSH1 0x20 DUP3 ADD SWAP1 POP SWAP2 SWAP1 POP JUMP JUMPDEST PUSH0 PUSH1 0x20 DUP3 ADD SWAP1 POP DUP2 DUP2 SUB PUSH0 DUP4 ADD MSTORE PUSH2 0x2B32 DUP2 PUSH2 0x2AF9 JUMP JUMPDEST SWAP1 POP SWAP2 SWAP1 POP JUMP JUMPDEST PUSH2 0x2B42 DUP2 PUSH2 0x1F4C JUMP JUMPDEST DUP3 MSTORE POP POP JUMP JUMPDEST PUSH0 PUSH1 0x20 DUP3 ADD SWAP1 POP PUSH2 0x2B5B PUSH0 DUP4 ADD DUP5 PUSH2 0x2B39 JUMP JUMPDEST SWAP3 SWAP2 POP POP JUMP JUMPDEST PUSH32 0x4175746F6D61746F7220616464726573732063616E6E6F74206265207A65726F PUSH0 DUP3 ADD MSTORE POP JUMP JUMPDEST PUSH0 PUSH2 0x2B95 PUSH1 0x20 DUP4 PUSH2 0x28C8 JUMP JUMPDEST SWAP2 POP PUSH2 0x2BA0 DUP3 PUSH2 0x2B61 JUMP JUMPDEST PUSH1 0x20 DUP3 ADD SWAP1 POP SWAP2 SWAP1 POP JUMP JUMPDEST PUSH0 PUSH1 0x20 DUP3 ADD SWAP1 POP DUP2 DUP2 SUB PUSH0 DUP4 ADD MSTORE PUSH2 0x2BC2 DUP2 PUSH2 0x2B89 JUMP JUMPDEST SWAP1 POP SWAP2 SWAP1 POP JUMP JUMPDEST PUSH32 0x546F6B656E20616464726573732063616E6E6F74206265207A65726F00000000 PUSH0 DUP3 ADD MSTORE POP JUMP JUMPDEST PUSH0 PUSH2 0x2BFD PUSH1 0x1C DUP4 PUSH2 0x28C8 JUMP JUMPDEST SWAP2 POP PUSH2 0x2C08 DUP3 PUSH2 0x2BC9 JUMP JUMPDEST PUSH1 0x20 DUP3 ADD SWAP1 POP SWAP2 SWAP1 POP JUMP JUMPDEST PUSH0 PUSH1 0x20 DUP3 ADD SWAP1 POP DUP2 DUP2 SUB PUSH0 DUP4 ADD MSTORE PUSH2 0x2C2A DUP2 PUSH2 0x2BF1 JUMP JUMPDEST SWAP1 POP SWAP2 SWAP1 POP JUMP JUMPDEST PUSH0 DUP2 SWAP1 POP SWAP3 SWAP2 POP POP JUMP JUMPDEST PUSH0 PUSH2 0x2C46 DUP4 DUP6 PUSH2 0x2C31 JUMP JUMPDEST SWAP4 POP PUSH2 0x2C53 DUP4 DUP6 DUP5 PUSH2 0x231C JUMP JUMPDEST DUP3 DUP5 ADD SWAP1 POP SWAP4 SWAP3 POP POP POP JUMP JUMPDEST PUSH0 PUSH2 0x2C6B DUP3 DUP5 DUP7 PUSH2 0x2C3B JUMP JUMPDEST SWAP2 POP DUP2 SWAP1 POP SWAP4 SWAP3 POP POP POP JUMP JUMPDEST PUSH0 PUSH1 0x40 DUP3 ADD SWAP1 POP PUSH2 0x2C8A PUSH0 DUP4 ADD DUP6 PUSH2 0x1E3D JUMP JUMPDEST PUSH2 0x2C97 PUSH1 0x20 DUP4 ADD DUP5 PUSH2 0x2B39 JUMP JUMPDEST SWAP4 SWAP3 POP POP POP JUMP JUMPDEST PUSH0 PUSH2 0x2CA8 DUP3 PUSH2 0x1F4C JUMP JUMPDEST SWAP2 POP PUSH2 0x2CB3 DUP4 PUSH2 0x1F4C JUMP JUMPDEST SWAP3 POP PUSH2 0x2CE0 PUSH32 0xFFFFFFFFFFFFFFFFFFFFFFFFFFFFFFFFFFFFFFFFFFFFFFFFFFFFFFFFFFFFFFFF DUP5 DUP5 PUSH2 0x27AD JUMP JUMPDEST SWAP1 POP SWAP3 SWAP2 POP POP JUMP JUMPDEST PUSH32 0x50726963652066656564206E6F74207265676973746572656420666F7220746F PUSH0 DUP3 ADD MSTORE PUSH32 0x6B656E0000000000000000000000000000000000000000000000000000000000 PUSH1 0x20 DUP3 ADD MSTORE POP JUMP JUMPDEST PUSH0 PUSH2 0x2D42 PUSH1 0x23 DUP4 PUSH2 0x28C8 JUMP JUMPDEST SWAP2 POP PUSH2 0x2D4D DUP3 PUSH2 0x2CE8 JUMP JUMPDEST PUSH1 0x40 DUP3 ADD SWAP1 POP SWAP2 SWAP1 POP JUMP JUMPDEST PUSH0 PUSH1 0x20 DUP3 ADD SWAP1 POP DUP2 DUP2 SUB PUSH0 DUP4 ADD MSTORE PUSH2 0x2D6F DUP2 PUSH2 0x2D36 JUMP JUMPDEST SWAP1 POP SWAP2 SWAP1 POP JUMP JUMPDEST PUSH0 DUP2 SWAP1 POP SWAP2 SWAP1 POP JUMP JUMPDEST PUSH2 0x2D88 DUP2 PUSH2 0x2D76 JUMP JUMPDEST DUP2 EQ PUSH2 0x2D92 JUMPI PUSH0 PUSH0 REVERT JUMPDEST POP JUMP JUMPDEST PUSH0 DUP2 MLOAD SWAP1 POP PUSH2 0x2DA3 DUP2 PUSH2 0x2D7F JUMP JUMPDEST SWAP3 SWAP2 POP POP JUMP JUMPDEST PUSH0 DUP2 ISZERO ISZERO SWAP1 POP SWAP2 SWAP1 POP JUMP JUMPDEST PUSH2 0x2DBD DUP2 PUSH2 0x2DA9 JUMP JUMPDEST DUP2 EQ PUSH2 0x2DC7 JUMPI PUSH0 PUSH0 REVERT JUMPDEST POP JUMP JUMPDEST PUSH0 DUP2 MLOAD SWAP1 POP PUSH2 0x2DD8 DUP2 PUSH2 0x2DB4 JUMP JUMPDEST SWAP3 SWAP2 POP POP JUMP JUMPDEST PUSH0 PUSH0 PUSH1 0x40 DUP4 DUP6 SUB SLT ISZERO PUSH2 0x2DF4 JUMPI PUSH2 0x2DF3 PUSH2 0x1D3C JUMP JUMPDEST JUMPDEST PUSH0 PUSH2 0x2E01 DUP6 DUP3 DUP7 ADD PUSH2 0x2D95 JUMP JUMPDEST SWAP3 POP POP PUSH1 0x20 PUSH2 0x2E12 DUP6 DUP3 DUP7 ADD PUSH2 0x2DCA JUMP JUMPDEST SWAP2 POP POP SWAP3 POP SWAP3 SWAP1 POP JUMP JUMPDEST PUSH32 0x5375707261205356616C756546656564206661696C6564000000000000000000 PUSH0 DUP3 ADD MSTORE POP JUMP JUMPDEST PUSH0 PUSH2 0x2E50 PUSH1 0x17 DUP4 PUSH2 0x28C8 JUMP JUMPDEST SWAP2 POP PUSH2 0x2E5B DUP3 PUSH2 0x2E1C JUMP JUMPDEST PUSH1 0x20 DUP3 ADD SWAP1 POP SWAP2 SWAP1 POP JUMP JUMPDEST PUSH0 PUSH1 0x20 DUP3 ADD SWAP1 POP DUP2 DUP2 SUB PUSH0 DUP4 ADD MSTORE PUSH2 0x2E7D DUP2 PUSH2 0x2E44 JUMP JUMPDEST SWAP1 POP SWAP2 SWAP1 POP JUMP JUMPDEST PUSH32 0x5265656E7472616E637947756172643A207265656E7472616E742063616C6C00 PUSH0 DUP3 ADD MSTORE POP JUMP JUMPDEST PUSH0 PUSH2 0x2EB8 PUSH1 0x1F DUP4 PUSH2 0x28C8 JUMP JUMPDEST SWAP2 POP PUSH2 0x2EC3 DUP3 PUSH2 0x2E84 JUMP JUMPDEST PUSH1 0x20 DUP3 ADD SWAP1 POP SWAP2 SWAP1 POP JUMP JUMPDEST PUSH0 PUSH1 0x20 DUP3 ADD SWAP1 POP DUP2 DUP2 SUB PUSH0 DUP4 ADD MSTORE PUSH2 0x2EE5 DUP2 PUSH2 0x2EAC JUMP JUMPDEST SWAP1 POP SWAP2 SWAP1 POP JUMP JUMPDEST PUSH0 PUSH1 0x60 DUP3 ADD SWAP1 POP PUSH2 0x2EFF PUSH0 DUP4 ADD DUP7 PUSH2 0x1E3D JUMP JUMPDEST PUSH2 0x2F0C PUSH1 0x20 DUP4 ADD DUP6 PUSH2 0x1E3D JUMP JUMPDEST PUSH2 0x2F19 PUSH1 0x40 DUP4 ADD DUP5 PUSH2 0x2B39 JUMP JUMPDEST SWAP5 SWAP4 POP POP POP POP JUMP JUMPDEST PUSH0 PUSH1 0x20 DUP3 DUP5 SUB SLT ISZERO PUSH2 0x2F36 JUMPI PUSH2 0x2F35 PUSH2 0x1D3C JUMP JUMPDEST JUMPDEST PUSH0 PUSH2 0x2F43 DUP5 DUP3 DUP6 ADD PUSH2 0x2DCA JUMP JUMPDEST SWAP2 POP POP SWAP3 SWAP2 POP POP JUMP JUMPDEST PUSH0 DUP2 MLOAD SWAP1 POP SWAP2 SWAP1 POP JUMP JUMPDEST PUSH0 DUP3 DUP3 MSTORE PUSH1 0x20 DUP3 ADD SWAP1 POP SWAP3 SWAP2 POP POP JUMP JUMPDEST PUSH0 DUP2 SWAP1 POP PUSH1 0x20 DUP3 ADD SWAP1 POP SWAP2 SWAP1 POP JUMP JUMPDEST PUSH2 0x2F7E DUP2 PUSH2 0x1D63 JUMP JUMPDEST DUP3 MSTORE POP POP JUMP JUMPDEST PUSH0 PUSH2 0x2F8F DUP4 DUP4 PUSH2 0x2F75 JUMP JUMPDEST PUSH1 0x20 DUP4 ADD SWAP1 POP SWAP3 SWAP2 POP POP JUMP JUMPDEST PUSH0 PUSH1 0x20 DUP3 ADD SWAP1 POP SWAP2 SWAP1 POP JUMP JUMPDEST PUSH0 PUSH2 0x2FB1 DUP3 PUSH2 0x2F4C JUMP JUMPDEST PUSH2 0x2FBB DUP2 DUP6 PUSH2 0x2F56 JUMP JUMPDEST SWAP4 POP PUSH2 0x2FC6 DUP4 PUSH2 0x2F66 JUMP JUMPDEST DUP1 PUSH0 JUMPDEST DUP4 DUP2 LT ISZERO PUSH2 0x2FF6 JUMPI DUP2 MLOAD PUSH2 0x2FDD DUP9 DUP3 PUSH2 0x2F84 JUMP JUMPDEST SWAP8 POP PUSH2 0x2FE8 DUP4 PUSH2 0x2F9B JUMP JUMPDEST SWAP3 POP POP PUSH1 0x1 DUP2 ADD SWAP1 POP PUSH2 0x2FC9 JUMP JUMPDEST POP DUP6 SWAP4 POP POP POP POP SWAP3 SWAP2 POP POP JUMP JUMPDEST PUSH0 PUSH1 0xA0 DUP3 ADD SWAP1 POP PUSH2 0x3016 PUSH0 DUP4 ADD DUP9 PUSH2 0x2B39 JUMP JUMPDEST PUSH2 0x3023 PUSH1 0x20 DUP4 ADD DUP8 PUSH2 0x2B39 JUMP JUMPDEST DUP2 DUP2 SUB PUSH1 0x40 DUP4 ADD MSTORE PUSH2 0x3035 DUP2 DUP7 PUSH2 0x2FA7 JUMP JUMPDEST SWAP1 POP PUSH2 0x3044 PUSH1 0x60 DUP4 ADD DUP6 PUSH2 0x1E3D JUMP JUMPDEST PUSH2 0x3051 PUSH1 0x80 DUP4 ADD DUP5 PUSH2 0x2B39 JUMP JUMPDEST SWAP7 SWAP6 POP POP POP POP POP POP JUMP JUMPDEST PUSH0 PUSH8 0xFFFFFFFFFFFFFFFF DUP3 GT ISZERO PUSH2 0x3075 JUMPI PUSH2 0x3074 PUSH2 0x2274 JUMP JUMPDEST JUMPDEST PUSH1 0x20 DUP3 MUL SWAP1 POP PUSH1 0x20 DUP2 ADD SWAP1 POP SWAP2 SWAP1 POP JUMP JUMPDEST PUSH0 PUSH2 0x3098 PUSH2 0x3093 DUP5 PUSH2 0x305B JUMP JUMPDEST PUSH2 0x22D2 JUMP JUMPDEST SWAP1 POP DUP1 DUP4 DUP3 MSTORE PUSH1 0x20 DUP3 ADD SWAP1 POP PUSH1 0x20 DUP5 MUL DUP4 ADD DUP6 DUP2 GT ISZERO PUSH2 0x30BB JUMPI PUSH2 0x30BA PUSH2 0x1E6D JUMP JUMPDEST JUMPDEST DUP4 JUMPDEST DUP2 DUP2 LT ISZERO PUSH2 0x30E4 JUMPI DUP1 PUSH2 0x30D0 DUP9 DUP3 PUSH2 0x2508 JUMP JUMPDEST DUP5 MSTORE PUSH1 0x20 DUP5 ADD SWAP4 POP POP PUSH1 0x20 DUP2 ADD SWAP1 POP PUSH2 0x30BD JUMP JUMPDEST POP POP POP SWAP4 SWAP3 POP POP POP JUMP JUMPDEST PUSH0 DUP3 PUSH1 0x1F DUP4 ADD SLT PUSH2 0x3102 JUMPI PUSH2 0x3101 PUSH2 0x1E65 JUMP JUMPDEST JUMPDEST DUP2 MLOAD PUSH2 0x3112 DUP5 DUP3 PUSH1 0x20 DUP7 ADD PUSH2 0x3086 JUMP JUMPDEST SWAP2 POP POP SWAP3 SWAP2 POP POP JUMP JUMPDEST PUSH0 PUSH1 0x20 DUP3 DUP5 SUB SLT ISZERO PUSH2 0x3130 JUMPI PUSH2 0x312F PUSH2 0x1D3C JUMP JUMPDEST JUMPDEST PUSH0 DUP3 ADD MLOAD PUSH8 0xFFFFFFFFFFFFFFFF DUP2 GT ISZERO PUSH2 0x314D JUMPI PUSH2 0x314C PUSH2 0x1D40 JUMP JUMPDEST JUMPDEST PUSH2 0x3159 DUP5 DUP3 DUP6 ADD PUSH2 0x30EE JUMP JUMPDEST SWAP2 POP POP SWAP3 SWAP2 POP POP JUMP INVALID LOG2 PUSH5 0x6970667358 0x22 SLT KECCAK256 MLOAD PUSH13 0x659FCDC11898442D9261B38A91 0x29 PUSH32 0xFA2DD142DAE045FF03A9FE85CDFD1264736F6C634300081E0033000000000000 "
		},
		"gasEstimates": {
			"creation": {
				"codeDepositCost": "2539200",
				"executionCost": "infinite",
				"totalCost": "infinite"
			},
			"external": {
				"authorizedAutomator()": "2576",
				"dexRouter()": "infinite",
				"executeInitialPortfolio((address,uint256)[],uint256,uint256[])": "infinite",
				"owner()": "2537",
				"performRebalance(address,(address,uint256)[],uint256[],uint256[])": "infinite",
				"previewRebalance(address,(address,uint256)[])": "infinite",
				"priceFeedIdByToken(address)": "2900",
				"registerToken(string,address,uint64)": "infinite",
				"renounceOwnership()": "infinite",
				"setAutomator(address)": "infinite",
				"stablecoin()": "infinite",
				"supraValueFeed()": "infinite",
				"sweep(address)": "infinite",
				"tokenAddressBySymbol(string)": "infinite",
				"transferOwnership(address)": "infinite"
			},
			"internal": {
				"_executeBuyOrders(address,struct AutoRebalancer.AssetAllocation calldata[] calldata,uint256[] memory,uint256[] calldata)": "infinite",
				"_executeSellOrders(address,struct AutoRebalancer.AssetAllocation calldata[] calldata,uint256[] memory,uint256[] calldata)": "infinite",
				"_getHoldingValueUSD(address,address)": "infinite",
				"_getOraclePrice(address)": "infinite",
				"_getPortfolioValueUSD(address,struct AutoRebalancer.AssetAllocation calldata[] calldata)": "infinite",
				"_swap(address,address,uint256,uint256,address)": "infinite"
			}
		},
		"methodIdentifiers": {
			"authorizedAutomator()": "077e21f5",
			"dexRouter()": "0758d924",
			"executeInitialPortfolio((address,uint256)[],uint256,uint256[])": "c3920ddc",
			"owner()": "8da5cb5b",
			"performRebalance(address,(address,uint256)[],uint256[],uint256[])": "1d3c9b9b",
			"previewRebalance(address,(address,uint256)[])": "0ec9a49c",
			"priceFeedIdByToken(address)": "5b79175c",
			"registerToken(string,address,uint64)": "ebb08d87",
			"renounceOwnership()": "715018a6",
			"setAutomator(address)": "e7c5a6e8",
			"stablecoin()": "e9cbd822",
			"supraValueFeed()": "ac1f5cf9",
			"sweep(address)": "01681a62",
			"tokenAddressBySymbol(string)": "d80989ed",
			"transferOwnership(address)": "f2fde38b"
		}
	},
	"abi": [
		{
			"inputs": [
				{
					"internalType": "address",
					"name": "_dexRouterAddress",
					"type": "address"
				},
				{
					"internalType": "address",
					"name": "_supraFeedAddress",
					"type": "address"
				},
				{
					"internalType": "address",
					"name": "_stablecoinAddress",
					"type": "address"
				}
			],
			"stateMutability": "nonpayable",
			"type": "constructor"
		},
		{
			"inputs": [
				{
					"internalType": "address",
					"name": "owner",
					"type": "address"
				}
			],
			"name": "OwnableInvalidOwner",
			"type": "error"
		},
		{
			"inputs": [
				{
					"internalType": "address",
					"name": "account",
					"type": "address"
				}
			],
			"name": "OwnableUnauthorizedAccount",
			"type": "error"
		},
		{
			"inputs": [
				{
					"internalType": "address",
					"name": "token",
					"type": "address"
				}
			],
			"name": "SafeERC20FailedOperation",
			"type": "error"
		},
		{
			"anonymous": false,
			"inputs": [
				{
					"indexed": true,
					"internalType": "address",
					"name": "automator",
					"type": "address"
				}
			],
			"name": "AutomatorSet",
			"type": "event"
		},
		{
			"anonymous": false,
			"inputs": [
				{
					"indexed": true,
					"internalType": "address",
					"name": "previousOwner",
					"type": "address"
				},
				{
					"indexed": true,
					"internalType": "address",
					"name": "newOwner",
					"type": "address"
				}
			],
			"name": "OwnershipTransferred",
			"type": "event"
		},
		{
			"anonymous": false,
			"inputs": [
				{
					"indexed": true,
					"internalType": "address",
					"name": "user",
					"type": "address"
				},
				{
					"indexed": false,
					"internalType": "uint256",
					"name": "capitalAmount",
					"type": "uint256"
				}
			],
			"name": "PortfolioExecuted",
			"type": "event"
		},
		{
			"anonymous": false,
			"inputs": [
				{
					"indexed": true,
					"internalType": "address",
					"name": "user",
					"type": "address"
				}
			],
			"name": "PortfolioRebalanced",
			"type": "event"
		},
		{
			"anonymous": false,
			"inputs": [
				{
					"indexed": true,
					"internalType": "string",
					"name": "symbol",
					"type": "string"
				},
				{
					"indexed": true,
					"internalType": "address",
					"name": "tokenAddress",
					"type": "address"
				},
				{
					"indexed": false,
					"internalType": "uint64",
					"name": "priceFeedId",
					"type": "uint64"
				}
			],
			"name": "TokenRegistered",
			"type": "event"
		},
		{
			"inputs": [],
			"name": "authorizedAutomator",
			"outputs": [
				{
					"internalType": "address",
					"name": "",
					"type": "address"
				}
			],
			"stateMutability": "view",
			"type": "function"
		},
		{
			"inputs": [],
			"name": "dexRouter",
			"outputs": [
				{
					"internalType": "contract IDEXRouter",
					"name": "",
					"type": "address"
				}
			],
			"stateMutability": "view",
			"type": "function"
		},
		{
			"inputs": [
				{
					"components": [
						{
							"internalType": "address",
							"name": "token",
							"type": "address"
						},
						{
							"internalType": "uint256",
							"name": "percentage",
							"type": "uint256"
						}
					],
					"internalType": "struct AutoRebalancer.AssetAllocation[]",
					"name": "allocations",
					"type": "tuple[]"
				},
				{
					"internalType": "uint256",
					"name": "capitalAmount",
					"type": "uint256"
				},
				{
					"internalType": "uint256[]",
					"name": "minAmountsOut",
					"type": "uint256[]"
				}
			],
			"name": "executeInitialPortfolio",
			"outputs": [],
			"stateMutability": "nonpayable",
			"type": "function"
		},
		{
			"inputs": [],
			"name": "owner",
			"outputs": [
				{
					"internalType": "address",
					"name": "",
					"type": "address"
				}
			],
			"stateMutability": "view",
			"type": "function"
		},
		{
			"inputs": [
				{
					"internalType": "address",
					"name": "user",
					"type": "address"
				},
				{
					"components": [
						{
							"internalType": "address",
							"name": "token",
							"type": "address"
						},
						{
							"internalType": "uint256",
							"name": "percentage",
							"type": "uint256"
						}
					],
					"internalType": "struct AutoRebalancer.AssetAllocation[]",
					"name": "targetAllocations",
					"type": "tuple[]"
				},
				{
					"internalType": "uint256[]",
					"name": "minAmountsOutSell",
					"type": "uint256[]"
				},
				{
					"internalType": "uint256[]",
					"name": "minAmountsOutBuy",
					"type": "uint256[]"
				}
			],
			"name": "performRebalance",
			"outputs": [],
			"stateMutability": "nonpayable",
			"type": "function"
		},
		{
			"inputs": [
				{
					"internalType": "address",
					"name": "user",
					"type": "address"
				},
				{
					"components": [
						{
							"internalType": "address",
							"name": "token",
							"type": "address"
						},
						{
							"internalType": "uint256",
							"name": "percentage",
							"type": "uint256"
						}
					],
					"internalType": "struct AutoRebalancer.AssetAllocation[]",
					"name": "targetAllocations",
					"type": "tuple[]"
				}
			],
			"name": "previewRebalance",
			"outputs": [
				{
					"internalType": "uint256[]",
					"name": "amountsToSell",
					"type": "uint256[]"
				},
				{
					"internalType": "uint256[]",
					"name": "buyOrdersUSD",
					"type": "uint256[]"
				}
			],
			"stateMutability": "view",
			"type": "function"
		},
		{
			"inputs": [
				{
					"internalType": "address",
					"name": "",
					"type": "address"
				}
			],
			"name": "priceFeedIdByToken",
			"outputs": [
				{
					"internalType": "uint64",
					"name": "",
					"type": "uint64"
				}
			],
			"stateMutability": "view",
			"type": "function"
		},
		{
			"inputs": [
				{
					"internalType": "string",
					"name": "_symbol",
					"type": "string"
				},
				{
					"internalType": "address",
					"name": "_tokenAddress",
					"type": "address"
				},
				{
					"internalType": "uint64",
					"name": "_priceFeedId",
					"type": "uint64"
				}
			],
			"name": "registerToken",
			"outputs": [],
			"stateMutability": "nonpayable",
			"type": "function"
		},
		{
			"inputs": [],
			"name": "renounceOwnership",
			"outputs": [],
			"stateMutability": "nonpayable",
			"type": "function"
		},
		{
			"inputs": [
				{
					"internalType": "address",
					"name": "_automator",
					"type": "address"
				}
			],
			"name": "setAutomator",
			"outputs": [],
			"stateMutability": "nonpayable",
			"type": "function"
		},
		{
			"inputs": [],
			"name": "stablecoin",
			"outputs": [
				{
					"internalType": "contract IERC20",
					"name": "",
					"type": "address"
				}
			],
			"stateMutability": "view",
			"type": "function"
		},
		{
			"inputs": [],
			"name": "supraValueFeed",
			"outputs": [
				{
					"internalType": "contract ISupraSValueFeed",
					"name": "",
					"type": "address"
				}
			],
			"stateMutability": "view",
			"type": "function"
		},
		{
			"inputs": [
				{
					"internalType": "address",
					"name": "tokenAddress",
					"type": "address"
				}
			],
			"name": "sweep",
			"outputs": [],
			"stateMutability": "nonpayable",
			"type": "function"
		},
		{
			"inputs": [
				{
					"internalType": "string",
					"name": "",
					"type": "string"
				}
			],
			"name": "tokenAddressBySymbol",
			"outputs": [
				{
					"internalType": "address",
					"name": "",
					"type": "address"
				}
			],
			"stateMutability": "view",
			"type": "function"
		},
		{
			"inputs": [
				{
					"internalType": "address",
					"name": "newOwner",
					"type": "address"
				}
			],
			"name": "transferOwnership",
			"outputs": [],
			"stateMutability": "nonpayable",
			"type": "function"
		}
	]
}